:020000040800F2
:1000000054080020F50E0008F10E0008F10E00085B
:10001000F10E0008F10E0008F10E000800000000CB
:10002000000000000000000000000000F10E0008C9
:10003000F10E000800000000F10E0008F10E0008AB
:10004000F10E0008F10E0008F10E0008F10E000894
:10005000F10E0008F10E0008F10E0008F10E000884
:10006000F10E0008F10E0008F10E0008F10E000874
:10007000F10E0008F10E0008F10E0008F10E000864
:10008000F10E0008F10E0008F10E0008F10E000854
:10009000F10E0008F10E0008F10E0008F10E000844
:1000A000F10E0008F10E0008F10E0008F10E000834
:1000B00075030008F10E0008F10E0008F10E0008AB
:1000C000F10E0008F10E0008F10E0008F10E000814
:1000D000F10E0008F10E0008F10E0008F10E000804
:1000E000F10E0008F10E0008F10E000800000000FB
:1000F0000000000000000000000000000000000000
:1001000000000000000000005FF808F1F0B5164D97
:1001100087B0284601F0A8F800244FF40072282385
:1001200001264FF48277284601A9ADF80E20ADF8DC
:100130001030ADF80440ADF81440ADF81240ADF801
:100140000840ADF80A40ADF80670ADF80C6001F05B
:10015000C1F82146284601F0EBF83146284601F067
:10016000D9F807B0F0BD00BF0038004080B50121CC
:1001700086B041F21D00042501F046F801214E48E9
:1001800001F04EF808234FF0030918270DEB050185
:100190004A48ADF804308DF8075000F08BFF0DEBA6
:1001A000050146480024ADF804508DF806908DF8FE
:1001B000077000F07FFF4FF4E1320C2302A94048A2
:1001C0000292ADF81230ADF80C40ADF80E40ADF82B
:1001D0001040ADF8144001F02DF90121384801F02C
:1001E00087F94FF480581023364E0DEB0501304649
:1001F0008DF807308DF80690ADF8048000F05AFFB6
:100200004FF42043C6F810800DEB05013046ADF8E1
:1002100004308DF8077000F04DFF4FF480433046F6
:100220000DEB0501ADF804308DF8075000F042FFEA
:10023000FFF76CFF4FF480730DEB05011F48ADF81D
:1002400004308DF8075000F035FF0121084600F01A
:10025000E7FF21464FF0804001F0CEF801214FF03A
:10026000804001F0E3F801224FF08040114601F098
:10027000DBF81C210123022202A88DF808108DF85A
:100280000B308DF80A408DF8092000F0E1FE0E4990
:10029000CB6813F0807309D1C8680C4A40F08070B5
:1002A000C8605360136843F001031360084800F00E
:1002B0000BFE00F037F9FEE70540020000080140A0
:1002C00000440040000C0140F0ED00E0001000E0B0
:1002D000601500080A2810B504460BD08021074895
:1002E00001F018F90028F9D0A1B2044801F00EF984
:1002F000204610BD0D20FFF7EDFFEFE70044004062
:1003000030B5002185B004464FF0804001F074F80C
:1003100000254BF68032102301A9013C4FF08040AC
:10032000ADF80420ADF80630ADF80840ADF80A503D
:1003300001F00CF801214FF0804001F077F8044BF8
:1003400001214FF080401D6001F056F805B030BD2E
:100350005408002008B5FFF7D3FF024A1368002BAA
:10036000FCD008BD54080020014B1868704700BF3E
:100370005408002008B500214FF0804001F03CF8FF
:1003800001214FF0804001F051F80122014B1A6029
:1003900008BD00BF540800202DE9F0410023174696
:1003A0001925032288B080461E4800930C4601930D
:1003B000029303938DF800508DF8012000F084FD26
:1003C0006FB30DF10E050A2F394628BF0A214FEAF7
:1003D000182201AB8DF803808DF8041066188DF893
:1003E000022014F8012BB44203F8012FF9D10024A4
:1003F000684688447F1A00F051FA0DF1FF3313F874
:10040000011F9D420C44FAD1102268460DEB0201F7
:100410008DF80F40344600F017F9002FD3D108B003
:10042000BDE8F081681500080023192103222DE999
:10043000F043394889B0D0F80080009301930293CB
:1004400003938DF800108DF8012000F0C5FA3348B1
:1004500000F03AFDB8F1000F5AD04FF0B009304B20
:100460000DF1FF370DF10E0544460A2C28BF0A2472
:100470004FEA192101AA8DF803908DF804401E1946
:100480008DF8021013F8011BB34202F8011FF9D1D5
:100490006846A144A8EB040800F000FA00243B469B
:1004A00013F8012F9D421444FAD1102268460DEB37
:1004B00002018DF80F4000F0C7F83346B8F1000F85
:1004C000D2D1B02000F05AFA09214FF46C4000F06C
:1004D00021FA0DF10F0400F07FFA01F021F807F87E
:1004E000010FA742F9D101F01BF869468DF8000011
:1004F00010226020FFF750FF694610226020FFF7AE
:100500004BFF0A21602000F005FA09B0BDE8F08336
:100510000DF1FF37D5E700BF400B00088815000834
:10052000300A000808B5084800F0CEFC00F096F943
:1005300000F0C6F900F0C4F90A20FFF70BFFBDE890
:100540000840FFF771BF00BFA8150008F8B50646C0
:1005500011480D4600F0B8FC104F741E0F3614F809
:10056000011F384600F0B0FCB442F8D10C4800F04E
:10057000ABFC0C4800F0A8FC084E6C1E0F3514F8BC
:10058000011F304600F0A0FCAC42F8D10448BDE8A1
:10059000F84000F099BC00BFC0150008C81500085D
:1005A00004160008D0150008224B2DE9F0419B6885
:1005B00005460C46204803F48071904600F084FC08
:1005C0004FF480501D4B1E4A194650615A684B68C3
:1005D0009B1AEF2BFBD91B4A13899907FCD5B8F15D
:1005E000000F16DD26462F461649144804EB080E68
:1005F00017F8013B8B810B89DB07FCD58B8906F84B
:10060000013B426843689B1AB3F5965FFAD376457F
:10061000EED14FF480510A4B084A19615168536872
:100620005B1AB3F5796FFAD321462846BDE8F0414D
:10063000FFF78CBF00080140D8150008001000E04B
:10064000000C014000380040354B2DE9F0410546D3
:1006500018680C461746002848D00021314A196016
:100660009368314A03F4807313602E4B002299681B
:100670002E4801F4807100F027FC4FF480502C4B81
:100680002C4A194650615A684B689B1AEF2BFBD9CC
:10069000294A13899907FCD5002F15DD2646AE4659
:1006A000254A234927441EF8013B93811389DB0720
:1006B000FCD5938906F8013B48684B681B1AB3F5D3
:1006C000965FFAD3BE42EED14FF48051194B184ACF
:1006D0001961516853685B1AB3F5796FFAD32846EC
:1006E0002146FFF733FF0120BDE8F0814FF4FA7097
:1006F000FFF706FE0C4EDFF82C8002E0FFF734FE19
:1007000040B9D8F80830326803F480739342F5D0CA
:100710003360AAE7094800F0D7FB0020BDE8F0816C
:10072000000000200008014058080020E4150008DF
:10073000001000E0000C014000380040FC150008EB
:1007400038B5002204460321033000F0FBF90121F3
:100750000246204600F0F6F96278C0F30F239A4271
:1007600020D1A378C0B283421CD1144D6279EB88AA
:100770002A718BB1012B0DD143F6FE72298991426A
:1007800016D8A07B0E4A5054E07B0A4450700121D9
:100790000C4A1160013BEB80E378002003F0070373
:1007A000AB7238BD084800F08FFB4FF0FF3038BD0A
:1007B000064800F089FBEB88E9E700BF58080020F5
:1007C0006C0800206C480020081600081C16000861
:1007D00070B504461E481F49436894F90020CD5C5B
:1007E0000133022B4360C8BF002322F0300242EAEB
:1007F00005024FF00005C8BF436017482270827A97
:10080000037902F0070631440E79C18803F04003F2
:1008100042F0400243F010030229657266712271B2
:10082000E3700FD0A573E57300220621E01C00F0F1
:1008300089F901210246204600F084F9030AA070DC
:10084000637070BD83891A0AE373A273ECE700BF7B
:1008500000000020B01500085808002000230F22D7
:1008600010B50D4888B004930593069307938DF84F
:1008700010200A2400F028FB04A8FFF7A9FF10228B
:1008800069460DEB0200FFF78FFE6846FFF758FF41
:10089000013CF1D108B010BD381600080649074ADE
:1008A0000B6910B403F001042244127B01330B6185
:1008B000027010BC704700BF58080020B015000837
:1008C00000230122F0B5104889B0049305930693E4
:1008D00007938DF811200A2400F0F6FA0B4D0C4F07
:1008E00010222B690DEB020003F0010139440E7B4D
:1008F000013369468DF810602B61FFF7A5FE013CBE
:10090000EED109B0F0BD00BFA416000858080020C1
:10091000B0150008F0B5002302461925022489B05D
:10092000060A134805938DF810508DF811408DF884
:1009300013208DF81260069307938DF814100A2483
:1009400000F0C2FA0B4D0C4F10222B690DEB020088
:1009500003F0010139440E7B013369468DF81060C4
:100960002B61FFF771FE013CEED109B0F0BD00BF75
:10097000C416000858080020B015000800231921EB
:100980000422F0B50546114C89B011480493059333
:10099000069307938DF810108DF8112000F094FA4B
:1009A00023690C4A03F001010A44167B013304A8B1
:1009B0002F0A102269468DF813508DF812702361AA
:1009C0008DF81060FFF740FE09B0F0BD5808002018
:1009D000D8160008B0150008002319210522F0B52B
:1009E000104889B004930593069307938DF810106F
:1009F0008DF811200A2400F067FA0B4D0B4F1022DE
:100A00002B690DEB020003F0010139440E7B013329
:100A100069468DF810602B61FFF716FE013CEED1A0
:100A200009B0F0BDF016000858080020B015000805
:100A300045024094A7EA203E879EE604B7409EE622
:100A400005B7418B895540F6AF013540888AF7AF2D
:100A5000019E6B01EE8681A6042002A6209EE7027D
:100A6000A608AEB7C7FFFFCD280C9E6B130D20FE66
:100A7000955CF6AA80F7A6059EE71395A610E710E9
:100A80006F11130DB60EB60F120DF6B70FB600A804
:100A900002B700C7FFFFB60EA53026C44D2AF45E8C
:100AA0000FF6B70F9E6B11EB86868A88A7FC4B0268
:100AB000BCF04B1C9EE60527A2A10B249E898B95BA
:100AC000AF07BDB8A70295A682E701AD65F7BCF6F2
:100AD0004B269EE6052784A10B248095AD54F12773
:100AE00002BCE0AFF6898B9EE605878A9EEE069EE5
:100AF000E607BDB8A702BCF04B03FDBCF04B1BAD35
:100B00000E545853554954455F4533394D4350951C
:100B1000AF04A60EBDB8A702BCF04B0A95AD13F109
:100B20002702BCE0BCEE4B078B86C7FFBEBCF0CCF7
:100B300000E0A60F874FFBAF019E6B01F9A7018173
:100B40001001000000290FDD30B4084D014410F8F9
:100B5000014BD3B2634035F81330884283EA122246
:100B6000F5D1104630BC7047104670470817000892
:100B700070B51E46092E02F1FF33044615D8002B2E
:100B8000D8BF012006DD0D46234404F8015B9C42DA
:100B9000FBD110460A4BA3FB0623DB0803EB8303C0
:100BA000A6EB43033033237070BD054D1A46A5FBF9
:100BB0000653DB08FFF7DCFF04440130EAE700BF1F
:100BC000CDCCCCCCF8B5002B04460F4624DB092B4A
:100BD0001E4602F1FF3216DC002A36DD114625469C
:100BE000013905F8017BFBD1002B144428DB501C94
:100BF000174BA3FB0623DB0803EB8303A6EB43039E
:100C000030332370F8BD124BA3FB0653DB08FFF70C
:100C1000D9FF04440130EBE713F1090FC3F10006DB
:100C200002F1FF3508DA0A4B2A46A3FB0653DB081C
:100C30005B42FFF7C7FFECE7023A002ACEDC002256
:100C40002D23901C04F8013BD2E70120D0E700BF20
:100C5000CDCCCCCC2DE9F04182B0089E551E5FEA88
:100C6000161E0446984620D1002DD8BF012006DD6F
:100C70000F46631904F8017BA342FBD1104606F02E
:100C80000F06092E0CD9B8F1000F04D15736267083
:100C900002B0BDE8F0813736267002B0BDE8F081C1
:100CA0003036267002B0BDE8F081CDF800E02A466B
:100CB000FFF7D0FF04440130E1E700BF2DE9F04128
:100CC0000F4682B09846064608B1002303700025FF
:100CD00013785BB1BD4280F09D80252B0ED0337020
:100CE0000132137801350136002BF3D1AF4240F2C7
:100CF00091802846337002B0BDE8F0815378252BEF
:100D000034D0302B37D0541CA3F13002092A4FF0D5
:100D1000200138D8002202EB820203EB420214F8D1
:100D2000013F303AA3F13000092802F0FF02F2D966
:100D300010462844874238BF7A1BA3F1580338BFB6
:100D4000D2B2202B6ED8DFE803F05A6D6D6D6D6D59
:100D50006D6D6D6D6D52496D6D6D6D496D6D6D6D26
:100D60006D6D6D6D6D386D2F6D6D210033700232BC
:100D700001350136ACE79378941CA3F13002092ABF
:100D80004FF03001C6D900200246D2E7D8F8003033
:100D9000304600930023FFF75DFF034608F1040887
:100DA000621C1E44054493E7D8F800303046FFF734
:100DB000DFFE08F104080346F2E7D8F8001008F156
:100DC000040E0B78A3B3324602F8013B11F8013F41
:100DD000901B002BF8D1F0460346E1E7D8F800302D
:100DE0003046FFF7EFFE08F104080346D8E7012379
:100DF000D8F800201846327008F10408D0E7D8F877
:100E00000030304600930123FFF724FF08F1040867
:100E10000346C5E7013D0023284606F8013C02B021
:100E2000BDE8F0814FF0FF35284602B0BDE8F08103
:100E3000F0461846B4E700BF70B50446007858B1D4
:100E40000E46002503E014F8010F013528B13146A4
:100E5000FFF740FA431CF6D170BD284670BD00BFB5
:100E6000F0B596460F46ABB0154D01AC06460FCD1A
:100E70000FC40FCD0FC42D6873463A460AA88021CF
:100E80002560FFF71BFF7F2812DC9DF8280058B172
:100E90000AAD002403E015F8010F013428B13146F2
:100EA000FFF718FA431CF6D1044620462BB0F0BDDC
:100EB000044B01A81B68D968FFF7BEFFFEE700BF1F
:100EC00008190008100000200FB400B5074A83B0CD
:100ED00004AB53F8041B10681A4680680193FFF7AF
:100EE000BFFF03B05DF804EB04B0704710000020B2
:100EF000FEE700BF08B5104A104B93420CD2D8430E
:100F0000104420F0030004300D4A184452F8041B2A
:100F100043F8041B8342F9D10A480B494FF0000201
:100F20008842B8BF40F8042BFADB00F00FF8BDE8A8
:100F30000840FFF71BB900BF540400200000002048
:100F40002C190008540800207048002030B40024F8
:100F50004FF41F053A4B3B49186882B040F001003E
:100F6000186058681A4601405960196821F0847168
:100F700021F480311960196821F4802119605968C1
:100F800021F4FE0159609D6000940194196841F4B8
:100F90008031196003E0009BB3F5A06F09D013689E
:100FA00003F400330193009B01330093019B002B5A
:100FB000F1D0234B1B6813F4003318BF01230193B6
:100FC000019B012B06D04FF000621F4B9A6002B0CC
:100FD00030BC70471D491A4B08681A4640F0100093
:100FE0000860086820F007000860086840F0010009
:100FF00008605968596059685960596841F48061BE
:101000005960596821F47C115960596841F488117C
:101010005960196841F08071196013689B01FCD513
:101020005368074923F003035360536843F00203F6
:1010300053604B6803F00C03082BFAD1C3E700BFE1
:10104000001002400000FFF800ED00E00020024028
:10105000C3785BB90121037814485A0903F01F03D0
:10106000203201FA03F340F822307047104B0F2171
:10107000DA6870B4D243012485784378C2F302223F
:10108000C2F1040621FA02F22A40B3400178134368
:10109000064A1B0101F01F055018DBB2AC4080F876
:1010A0000033490942F8214070BC704700E100E07C
:1010B00000ED00E02DE9F041CD78EB0648BF8B78DC
:1010C000098805F00F0E48BF4EEA030E11F0FF0F1E
:1010D00020D0002301274FF00F08066802E00133FB
:1010E000082B16D007FA03F232EA0104F7D19C006C
:1010F00008FA04FC26EA0C060EFA04F4282D46EA47
:10110000040632D0482D03F1010308BF0261082B09
:10111000E8D10660FF2924D90022082301274FF0D7
:101120000F08466804E00133102B02F1040217D0C7
:1011300007FA03F434EA010CF5D108FA02FC26EAB6
:101140000C06282D0EFA02FC4CEA06060BD0482DA0
:1011500003F1010308BF0461102B02F10402E7D17F
:101160004660BDE8F0814461DDE74261B7E700BF5A
:10117000214A10B4536803F00C03042B06D0082B4B
:1011800025D01BB11D4A1346026001E01B4B0360D2
:1011900019491B4A4C68C4F30314145DE3404360CF
:1011A0004C68C4F30224145D23FA04F484604C6890
:1011B000C4F3C224145DE340C360496810BCC1F3AA
:1011C00081310A44127CB3FBF2F303617047536828
:1011D0005168C3F38343C90303F1020307D552687F
:1011E000920304D4054A02FB03F30360D0E7054AE7
:1011F00002FB03F30360CBE70010024000127A0009
:101200004004002000093D00044A936919B923EA0B
:1012100000009061704718439061704700100240D1
:10122000044AD36919B923EA0000D0617047184312
:10123000D061704700100240044AD36819B923EA0C
:101240000000D06070471843D06070470010024023
:10125000044A136919B923EA000010617047184362
:10126000106170470010024008B5174B984212D029
:10127000164B98421BD0164B984200D008BD012156
:101280004FF40040FFF7E4FFBDE8084000214FF4B1
:101290000040FFF7DDBF01214FF48050FFF7CCFF86
:1012A000BDE8084000214FF48050FFF7C5BF012181
:1012B0004FF48040FFF7CCFFBDE8084000214FF419
:1012C0008040FFF7C5BF00BF00300140003800403C
:1012D000003C00404A880B8830B48C881343CA888D
:1012E00023430C8913434A898D8923431343CC89B3
:1012F00002882B43234302F4415213439BB20380E1
:10130000838B0A8A23F400631B041B0C838330BC89
:1013100002827047038829B923F040031B041B0C89
:10132000038070479BB243F040030380704700BFC7
:10133000038829B923F400531B041B0C0380704756
:101340009BB243F400530380704700BF274A0388D1
:1013500090429BB212D002F5006290420ED0B0F1E2
:10136000804F0BD0A2F59832904207D002F58062F0
:10137000904203D002F58062904203D14A8823F064
:10138000700313431A4A904227D002F580629042BC
:1013900023D070B423F44073CE888D880C889BB220
:1013A00002F58C32334390420380858504850ED04C
:1013B000104B98420BD003F54063984207D003F5D9
:1013C0008063984203D003F58063984201D10B7A81
:1013D0000386012370BC8382704703808B888385DA
:1013E0000B88038501238382704700BF002C0140D6
:1013F0000010004000340140038829B923F00103A4
:101400001B041B0C038070479BB243F00103038055
:10141000704700BF83899BB21AB923EA0101818119
:101420007047194381817047FFF7F4BFC94389B200
:101430000182704770B50D460446038ACA889BB284
:1014400023F440531343898903828289AE8822F4AE
:10145000B05323F00C031B0428891B0C6A89334307
:10146000034313439BB2A381A38A86B09BB223F4A8
:1014700040730B4301A8A382FFF77AFE04991A4830
:10148000039BA289844208BF0B4612F4004F2A68CE
:1014900003EB830314BF5200920003EB8303B3FBFF
:1014A000F2F36422114DA189A5FB0360400902FB00
:1014B00010330A044FEA00100AD41B013233A5FB93
:1014C0000323C3F3431303439BB2238106B070BDD0
:1014D000D9003231A5FB0131C1F3421242EA0003C7
:1014E0009BB2238106B070BD003801401F85EB51CF
:1014F000838929B923F400531B041B0C8381704793
:101500009BB243F400538381704700BFC1F30801CD
:10151000818070470388194214BF01200020704762
:1015200030B40C4B0C4C19680C4DD1F8A820D1F8F4
:10153000AC0004FB02F4A2FB052305FB00400132D2
:10154000034443F10003C1E92A2323F0004030BCE7
:10155000704700BF100000202DF451582D7F954C8E
:10156000546573740A0D00000A0D2D2D2054657307
:10157000742075706C6F6164206F662064617461A3
:10158000202D2D0A0D0000000A0D2D2D205465730D
:10159000742075706C6F6164206F66206C6F61647D
:1015A0006572202D2D0A0D001B5B324A00000000E1
:1015B0000010200055AA33CCEE11F00F06190000E0
:1015C000536E643A2000000025303278200000007D
:1015D0005265633A2000000050696E3A2025307849
:1015E0000A0D000050696E3A202530782028746971
:1015F0006D3A202578290A0D0000000054696D65B8
:101600006F7574210A0D00002D2D20435243206573
:1016100072726F72202D2D0A0D00000052616D2034
:1016200041646472206F7574206F6620626F756EFE
:1016300064732121210A0D000A0D2D2D20456E74A1
:101640006572696E6720626F6F74202D2D0A0D0020
:101650000A0D2D2D204665746368696E6720484524
:10166000582064657363726970746F7273202D2DD6
:101670000A0D00000A0D2D2D205072657020657234
:10168000617365202D2D0A0D000000000A0D2D2D1F
:101690002054657374206572617365202D2D0A0DC9
:1016A000000000000A0D2D2D20456E746572696ED4
:1016B000672073656372657420626F6F74202D2DCF
:1016C0000A0D00000A0D2D2D2054657374207265DB
:1016D0006164202D2D0A0D000A0D2D2D20546573F7
:1016E000742052414D206A756D70202D2D0A0D0019
:1016F0000A0D2D2D205465737420474D20746167A9
:10170000202D2D0A0D0000000000C1C081C1400144
:1017100001C3C003800241C201C6C006800741C7A1
:101720000005C1C581C4400401CCC00C800D41CD71
:10173000000FC1CF81CE400E000AC1CA81CB400B41
:1017400001C9C009800841C801D8C018801941D911
:10175000001BC1DB81DA401A001EC1DE81DF401FA1
:1017600001DDC01D801C41DC0014C1D481D54015B1
:1017700001D7C017801641D601D2C012801341D3C1
:101780000011C1D181D0401001F0C030803141F151
:101790000033C1F381F240320036C1F681F74037A1
:1017A00001F5C035803441F4003CC1FC81FD403D71
:1017B00001FFC03F803E41FE01FAC03A803B41FB41
:1017C0000039C1F981F840380028C1E881E9402991
:1017D00001EBC02B802A41EA01EEC02E802F41EFA1
:1017E000002DC1ED81EC402C01E4C024802541E5B1
:1017F0000027C1E781E640260022C1E281E34023C1
:1018000001E1C021802041E001A0C060806141A1D0
:101810000063C1A381A240620066C1A681A74067A0
:1018200001A5C065806441A4006CC1AC81AD406D70
:1018300001AFC06F806E41AE01AAC06A806B41AB40
:101840000069C1A981A840680078C1B881B9407910
:1018500001BBC07B807A41BA01BEC07E807F41BFA0
:10186000007DC1BD81BC407C01B4C074807541B5B0
:101870000077C1B781B640760072C1B281B34073C0
:1018800001B1C071807041B00050C1908191405150
:101890000193C053805241920196C05680574197A0
:1018A0000055C19581944054019CC05C805D419D70
:1018B000005FC19F819E405E005AC19A819B405B40
:1018C0000199C059805841980188C0488049418990
:1018D000004BC18B818A404A004EC18E818F404FA0
:1018E000018DC04D804C418C0044C18481854045B0
:1018F0000187C047804641860182C04280434183C0
:101900000041C18181804040737464696F2E633AE5
:1019100020696E637265617365204D41585F535451
:0C19200052494E475F53495A450A0D00DA
:10192C000100000002000000FF00000000000000A9
:10193C001800002000000000000000000000000063
:10194C00010000000000000000000000000000008A
:10195C00000000000000000000000000000000007B
:10196C00000000000000000000000000000000006B
:10197C00000000000000000000000000000000005B
:10198C00000000000000000000000000000000004B
:101D6C000000000001020304010203040607080935
:041D7C00020406084F
:101D80000000000000000000000000000000000053
:101D90000000000000000000000000000000000043
:101DA0000000000000000000000000000000000033
:101DB0000000000000000000000000000000000023
:0400000508000000EF
:00000001FF
