:020000040800F2
:10000000540800209D530008995300089953000894
:100010009953000899530008995300080000000004
:1000200000000000000000000000000099530008DC
:1000300099530008000000009953000899530008E4
:1000400099530008995300089953000899530008E0
:1000500099530008995300089953000899530008D0
:1000600099530008995300089953000899530008C0
:1000700099530008995300089953000899530008B0
:1000800099530008995300089953000899530008A0
:100090009953000899530008995300089953000890
:1000A0009953000899530008995300089953000880
:1000B0000D4500089953000899530008995300080A
:1000C0009953000899530008995300089953000860
:1000D0009953000899530008995300089953000850
:1000E0009953000899530008995300080000000034
:1000F0000000000000000000000000000000000000
:1001000000000000000000005FF808F145022A949A
:100110006E08896E01204507D03523203D879EE675
:1001200004B7409EE605B7418B895540F6AF0135CF
:1001300040888AF7AF019E6B01EE8681A6042002FB
:10014000A6209EE702A608AEB7C7FFFFCD280C3B4E
:10015000440B20FE955CF6AA80F76E0544956E1060
:10016000433F42130DB60EB60F120DF6B70FB60091
:10017000A802B700B64226061820B6201F20C7FFE7
:10018000FF0E20D6B60EA53026BB4D2AE7B7425E3D
:100190000FF6B70F3B43E795AD50F12702BCE08661
:1001A000868A88A7FC4B02BCF84B1C9EE60527906C
:1001B000A10B248C898B95AF07BDC1A70295A682A0
:1001C000E701AD26F7BCFE4B2F9EE605271AA10BD3
:1001D000241695AF05898B9EE605878A9EEE069EBE
:1001E000E607BDC1A702BCF8BCE4A60F874FFBAF72
:1001F000019E6B01F9A701814B03FDBCF84B1BADC0
:100200000E545853554954455F4533394D43509525
:10021000AF04A60EBDC1A702BCF84B02BCF64B074B
:100220008B86C7FFBEBCF84B073F88CD2806BCF8BD
:100230004B1A9EE60527B1A12024AD358A4A9EEBD4
:1002400004B78B24023C8ACD2809BCF8BCE94201E2
:100250000000873F20072000C0DAE941420001008A
:1002600000003132363338393533000000000000E9
:100270000000E85601030101BE00E9FFBE02BE1FF7
:10028000BE22D5FFD600E9FFBE02E9FF010301FF50
:10029000EA00EBFFEA02EA1FEA22EAFFEB00EBFFCB
:1002A000EA02EBFFFFFFFFFFFFFFFFFFFFFFFFFF84
:1002B000FFFFFFFFFFFFFFFFFFFFFFFFFFFFFFFF4E
:1002C000FFFFFFFFFFFFFFFFFFFFFFFFFFFFFFFF3E
:1002D000FFFFFFFFFFFFFFFFFFFFFFFFFFFFFFFF2E
:1002E000FFFFFFFFFFFFFFFFFFFFFFFFFFFFFFFF1E
:1002F000FFFFFFFFFFFFFFFFFFFFFFFFFFFFFFFF0E
:10030000FFFFFFFFFFFFFFFFFFFFFFFFFFFFFFFFFD
:10031000FFFFFFFFFFFFFFFFFFFFFFFFFFFFFFFFED
:10032000FFFFFFFFFFFFFFFFFFFFFFFFFFFFFFFFDD
:10033000FFFFFFFFFFFFFFFFFFFFFFFFFFFFFFFFCD
:10034000FFFFFFFFFFFFFFFFFFFFFFFFFFFFFFFFBD
:10035000FFFFFFFFFFFFFFFFFFFFFFFFFFFFFFFFAD
:10036000FFFFFFFFFFFFFFFFFFFFFFFFFFFFFFFF9D
:10037000FFFFFFFFFFFFFFFFFFFFFFFFFFFFFFFF8D
:10038000FFFFFFFFFFFFFFFFFFFFFFFFFFFFFFFF7D
:10039000FFFFFFFFFFFFFFFFFFFFFFFFFFFFFFFF6D
:1003A000FFFFFFFFFFFFFFFFFFFFFFFFFFFFFFFF5D
:1003B000FFFFFFFFFFFFFFFFFFFFFFFFFFFFFFFF4D
:1003C000FFFFFFFFFFFFFFFFFFFFFFFFFFFFFFFF3D
:1003D000FFFFFFFFFFFFFFFFFFFFFFFFFFFFFFFF2D
:1003E000FFFFFFFFFFFFFFFFFFFFFFFFFFFFFFFF1D
:1003F000FFFFFFFFFFFFFFFFFFFFFFFFFFFFFFFF0D
:10040000FFFFFFFFFFFFFFFFFFFFFFFFFFFFFFFFFC
:10041000FFFFFFFFFFFFFFFFFFFFFFFFFFFFFFFFEC
:10042000FFFFFFFFFFFFFFFFFFFFFFFFFFFFFFFFDC
:10043000FFFFFFFFFFFFFFFFFFFFFFFFFFFFFFFFCC
:10044000FFFFFFFFFFFFFFFFFFFFFFFFFFFFFFFFBC
:10045000FFFF4500507FAF0165007A26F881A600B6
:10046000849003CCC11729FB27F925F7A659878A61
:10047000A67644AE9F89AE558988CF0040C2004021
:100480002AE14888CF0040C900402BD728D5AB2AA5
:10049000A003524265235926CAA17026C6A6AAA166
:1004A0005525C023BE27BC92BA90B8A1AA26B4A4F1
:1004B0005526B0A6AAA4AAA1AA26A8A4FFA1AA2646
:1004C000A2A400269EA655A455A1552696A4AA2608
:1004D00092A655A4FFA155268AA4002686A6AAAAFC
:1004E00055A1FF2703CCC117A6AAAAAAA1AA2679BB
:1004F000AAFFA1FF2673A6AAAA00A1AA266BA65549
:10050000AA55A1552663AAAAA1FF265DA655AAFF52
:10051000A1FF2655A655AA00A155264DA6AAA85565
:10052000A1FF2645A6AAA8AA263FA6AAA8FFA155CC
:100530002637A6AAA800A1AA262FA655A85526297F
:10054000A655A8AAA1FF2621A655A8FFA1AA26194B
:10055000A655A800A1552611A6AA43A155260AA66C
:100560005543A1AA2603A60181A600818987888A0E
:100570009BF6B751E601B752A6AAF7A655E701F6D2
:10058000A1AA2608E601A1552602201AA6AAF7A6C6
:1005900055E701F6A1AA2608E601A1552605200681
:1005A000982001992049B651F7B652E7019A9BF677
:1005B000B751E601B752A655F7A6AAE701F6A1552D
:1005C0002608E601A1AA2602201AA655F7A6AAE740
:1005D00001F6A1552608E601A1AA260520069820C5
:1005E0000199200BB651F7B652E7019AA60081B6E1
:1005F00051F7B652E7019A24022003A60181A60210
:1006000081CDC0006E01204507D035236E4430A651
:1006100001C70240AE30CF0243A6D4C702443F0018
:100620006E80016E02046EA0054F08000049B759A4
:100630006E880D6E440E120D3F423F439AC7FFFF76
:10064000CDCD86CDC49ACDCE05116F136FC60240B5
:10065000A4BFC70240CCCE20B61F2703CCC29DB694
:100660001EA4CFA14326F5B636A11026EFB620A4CE
:10067000074A267BB625A57F2675B628A53F266F97
:10068000B630A47FA1442667B633A53F2661C602D3
:1006900040A4074B5AC60244A1D42653CE0243A31A
:1006A00030264CC60245A53F2645C60248A51F2652
:1006B0003EB604A43BA1022636B605A1A02630B65C
:1006C0000BA4BFA1202628B60C2624B60DA4BDA1DC
:1006D00088261CB60EA447A1442614B63CA41FA12C
:1006E0001F260CB61BA53F26060C1003A601814F42
:1006F00081C601C0A1832630C601C1A1832629C6B7
:1007000001C2A1832622C601C3A183261BC6023CC7
:10071000A1832614C6023DA183260DC6023EA183F5
:100720002606C6023F4183024F81A60181A7FEA68D
:100730000195F7A6C0E70120056C0126017CF6EEC5
:1007400001878AF6A18326099FA03F95F6A202257C
:10075000E8A64095E00187A602F29786A70281A647
:100760003FA0C087A602A20197864C26015C818724
:1007700089A7FD3F585554260EA640C700754FC7A0
:1007800000746E02543F55B65595E004B654E2032A
:100790002408B654E703B655E704A651AE00CDC110
:1007A0001A95F7270EAB505FC70077CF00766E0221
:1007B00058203D6F01E7022059C60075CE0074CD68
:1007C000C11A95F7272FCB0075874FC900749786FC
:1007D000A001C700779FA200C700766E02584500AF
:1007E00074E601AB02E70124017C5554AFFE355499
:1007F000A602A70581450074E601AB02E7012401CA
:100800007C5554AFFE355495E602AB02E702240254
:100810006C01E004E601E203259F5554260F55566E
:1008200065FFFF2704AF013556A601B758B658201B
:10083000C1130D120D4E5E0F6E025C813F5A3F5B7D
:1008400081B65D3F5D814B03106F81116F136F8126
:100850001D20130D145D6E015B3F5CCDC4D986C7AE
:1008600000408A80814FC70078B60EA530270D1250
:100870005DB60FC70079130D120D204CB65B410118
:100880001CBE5A3C5A8CB60FE75EBE5AE65EB70FE6
:10089000B65AA1102620A601C7007820194FC7001C
:1008A00078006F0B4E0F5E4E5F0F6E015A200710DF
:1008B0005DB60FC70079B65A4B0E6E025B3D5C26E3
:1008C00004165D20036E015C0C200818201F201CFC
:1008D000202012C60078270D1D206E015B3F5CCDE5
:1008E000C51DCDC4D986C700408A808187CDC5513A
:1008F000C60240C60240A47FC70240C60240AA10FA
:10090000C70240C60240AA40C702408A81C60240D0
:10091000A47FA4BFC702409ACDC5519BC60240AA7E
:1009200040C7024086C700408A808187006F041359
:100930006F2002126F066F2E2029136F166FC602EA
:100940004062A404444495F7C60240A4BFC70240D5
:100950009ACDC55B9B957D2708C60240AA40C70279
:1009600040176F026FD48A814555AA35448E81B6EF
:1009700042B1702625B65E410606B65EA119261A5A
:10098000B65EB14127144E5E413C71B671A104269A
:1009900011C6FDECCEFDED878AFC4E5E414E4270E5
:1009A0003F71814F08000049B759CCD525CCD543BC
:1009B0008789A7FC95E60AF7E60BE7016F026F034C
:1009C0002031E6059EEB0487E60495E903978689C6
:1009D0008A97F695E8015F4859898A979EE601D87B
:1009E000D59B9EE7024FD8D59AB74095F76C032662
:1009F000026C02E603E009E602E20825C5E601FE14
:100A0000A7068187A60195FECDD5528A8187A601CA
:100A100095FECDD5778A81A7FEA6B095E7017F2008
:100A20000CF6EE01878A7F956C0126017CE601A019
:100A300048F6A20125EBA7028187C6EA2A4B30C6F9
:100A4000EA255FCDC31D95F7A1022623CE0076CF00
:100A500000B1C60077C700B2C600B3CDC5B1C700AC
:100A6000B355562705C1EA242505A601C700B08A5B
:100A7000814FC700B1C700B2C700B3C700B081C67D
:100A8000014B410106C600B04101044FC700B081CF
:100A9000A7F4C600BCCE00BBCDC8BE9EE7049EEF47
:100AA00003899EEE058AE6019EE7029E6F019EE79E
:100AB00008F695FAE706C600BCCE00BBCDC9059E78
:100AC000E7049EEF03899EEE058AE6019EE7029EFB
:100AD0006F019EE70AF695FAE708E609EE084C264C
:100AE000015C9EE0089EE70C9F95E206E70AC600BF
:100AF000B887C600B787E60B87E60A87E607EE06E3
:100B0000CDC55EA704C700B8CF00B7C600BCA10220
:100B100024074500BC7CA70C81C600B795E702C638
:100B200000B8E703E602E705C600B7E702C600B86B
:100B3000E703E704AF049F8B889EE7049EEF0395CD
:100B4000E605E7017FC700B8E604FAC700B7C600AC
:100B5000BBCDC865C100B82605C300B72727C600AE
:100B6000B9CDC5B1C700B9C600BBC700BACDC83B37
:100B70004D2612C6014F2708C600B9C1EA26230533
:100B8000A601C700B4C600BB2708410120410210DE
:100B90002026CE00B7CF00B5C600B8C700B62018D3
:100BA00095E604C700BDE605C700BE200B95E60428
:100BB000C700BFE605C700C04FC700B7C700B8C72A
:100BC00000BCC600BBA10224064500BBCCC6C34F77
:100BD000C700BB4CC7014FCCC6C4C6014B4B064F28
:100BE000C7014F2011C6014F4101044FC7014FC635
:100BF00000B44101044FC700B4814FC700B9A60338
:100C0000C700BA4FC700B481C6EA284B30C600C33C
:100C1000262BCDC29F4D2625C60149CDC5B1C701A2
:100C200049C1EA29250AA602CDCD2DA601C700C1DA
:100C3000A601C700C3C6EA274B03CDCE02CDC30D24
:100C4000C700C2CDC2DBC7014881C6014B4B0B4F69
:100C5000C700C1C70149C7014881C600C14101049D
:100C60004FC700C1814FC700C3C70149C70148C76B
:100C700000C181C600B0410107C600B4A101260130
:100C8000814F81A605AEEA81A605AEBE8187874D5C
:100C900027094101114102154F2019C6FDF8CEFD6B
:100CA000F9878AFD200EC6BE0D27092005C6EA0D6C
:100CB0002702A601A7028187A7FA4D270D41011B34
:100CC00041022E956F046F05203EC6FDF2CEFDF366
:100CD000878AFD9EE7069EEF05202DA6BE95E702BA
:100CE000A620E703C6BE21E7017FE705C6BE202098
:100CF00014A6EA95E702A620E703C6EA21E7017FEA
:100D0000E705C6EA20FAE70495E605EE04A70781A1
:100D10008789A7FE9F5D95270B41011B4102257F17
:100D20006F01202CE603CEFDF489CEFDF58AFD9EF1
:100D3000E7029EEF012019E6034848AB2AE7014F7E
:100D4000A9BE200BE6034848AB42E7014FA9BEF716
:100D500095E601FEA704818789A7FE9F5D95270B75
:100D600041011B4102257F6F01202CE603CEFDF6D9
:100D700089CEFDF78AFD9EE7029EEF012019E6036A
:100D80004848AB2CE7014FA9BE200BE6034848AB0F
:100D900044E7014FA9BEF795E601FEA70481B659C5
:100DA000C700E34B12C600D5CDD4C7C700D54FC787
:100DB00000D4C600D5200DC600D4CDD4C7C700D4FA
:100DC0004FC700D5C1EA2C230AA601C700D6C70029
:100DD000D820044FC700D6C600D4C1EA2B23084F41
:100DE000C700D7C700D881A601C700D781C600D3E6
:100DF000A102260FC600E6A10725034F20134500D8
:100E0000E67C814B0FC600E627054500E67A81A601
:100E100007C700E681C600CB4B074FC700CBC70012
:100E2000CCC600DEC100CF2603CCCA7AC700CFCE25
:100E300000E658588CD6EA2EC100CF262DC600CE2B
:100E4000CDC5BBC700CE4FC700CCC700CD4CC70037
:100E5000CA4CC700D3C600D8C700C9C600C8C10065
:100E6000C52203CCCA99C700C581C600DDC100E612
:100E7000271E975858D6EA2EC100CF2613C600C8A1
:100E8000C1EA2D2362C600C94B04A602204F204BA5
:100E9000A601C700CDA6084500CEFBF7C600E6C7F1
:100EA00000E2F6A1092404A6012017C600C94B04DC
:100EB000A6022002A601C700CC4FC700CE4CC70037
:100EC000CA4CC700D3C600D8C700C981C600C8C174
:100ED000EA2D2313C600C94B0220AFA601C700CCE0
:100EE000A602C700CD20D24FC700D381C600CA4B8F
:100EF000064FC700CA2006C600C8CDD4C7C700C861
:100F000081C600C7270641013C410248C600CC27E4
:100F100059CDCD754D2653C600CC4B1F4FC700C4CD
:100F2000C700C6C600E3A101260BC700CBA601C7B8
:100F300000E54F20324FC700E520154FC700E54CB4
:100F4000C700C4201FC600D72620C700C4C700C6DC
:100F5000A6022013C600E3A101260FC700CBA601FD
:100F6000C700E54FC700C6C700C781C600C441011E
:100F70001FC600DB410119CDCD3E410113C600DA89
:100F800041010DCDC821410107CDCD75A101260339
:100F9000C700E4C600F32617C600E441010BC600F3
:100FA000C6410105C600D94B04120020021300C639
:100FB00000E4410105C600E526201B01A601C7018A
:100FC000504B2DC60152C1EA4E2516C60151CDC562
:100FD000B1C701514FC7015220071A01C601502065
:100FE000E0C60151C1EA4FC60152CDD4C7C7015274
:100FF00081C6014B2606C600C44101044FC700C488
:101000004D2608A601C700E54F20054FC700E54C57
:10101000C700C6C700C74FC70150C70152C701511B
:10102000814FC700CEC700CCC700CD4CC700CA4F08
:10103000C700C5C700E2C700C8814FC700C84CC77A
:1010400000E54FC700C6C700E4C700C4C700C7C754
:1010500000DBC700DAC70150C70152C701518187C1
:10106000C6EA504B12CDC00C95F7260BCDC00C4DE7
:101070002605A601C700E78A81C6014B410106C6C5
:1010800000E74101044FC700E7814FC700E78187B0
:10109000C6EA514A266FC600EACDD4D1C700EAC6D7
:1010A00000E92652B64295F7C000EDC700ECC1EA50
:1010B000532523C1EA52221EC600EBCDC5BBC70093
:1010C000EBC600ECC100EF2303C700EFC100EE2424
:1010D0001DC700EE2018C600EA2613C600EBCDC5DA
:1010E000B1C700EBC1EA542505A601C700E895F693
:1010F000C700EDC600E9CDC5B1C700E9C1EA552575
:10110000044FC700E98A81C6EA56C700EAB642C75B
:1011100000EDA6FFC700EEC6014B410106C600E880
:101120004101044FC700E881C6EA56C700EA4FC72D
:1011300000E8C700EB8187C6EA574B19CDC2069578
:10114000F7260EC600F1A1012603C700F0A6012074
:10115000014FC700F18A81C6014B410106C600F06C
:101160004101044FC700F0814FC700F1C700F08173
:10117000C6014B4B044FC700F2814FC700F2818775
:10118000A60195FE2703485BFD4500F2FAF78A8128
:10119000C600F2A404262DC600F2A4082626C60026
:1011A000F2A410261FC600F2A4202618C600F2A43E
:1011B000402611C600F2A480260AC600E72605C60E
:1011C00000F02702A60181C600F2A4012607C6008E
:1011D000F2A4022702A60181C7FFFFB649C7014C4E
:1011E0004FC7014DC7014EC6014C270DC600F44143
:1011F0005A07C601B8A1A5260CA601C7014BC60116
:101200004C260520094F20F3C6014ACDC5B1C701C0
:101210004AA65AC701B8CDC5C5CDC788CDC7F8CD38
:10122000C62DCDCC27CDCD05CDCD1ECDCCB5CDCCCD
:101230000DCDCCE4CDD377CDD0D8CDD4B3CCCB9F0E
:10124000A7FDC6014D95F7C6014EE701F6A703813C
:10125000C6014E81CCC516200D4500FA7CCDC63E98
:10126000CDC5E7CDC7B6C600F4415A05C600F32781
:10127000E881C600F3270EA6A5C701B8C6FDEECECD
:10128000FDEF878AFDC7FFFF20FBC600FAC100F90A
:10129000270A4FC700F7C700F8C600FAC700F9C60B
:1012A00000F8A0FFC600F7A2FF24084500F76C0174
:1012B00026017CC600F6C000F8C600F5C200F7247F
:1012C0000CCE00F7CF00F5C600F8C700F6C6EA233B
:1012D000C000F8C6EA22C200F72503C7FFFF81A7B6
:1012E000F6956F066F028C9EEE03E65ED700FB9EBE
:1012F0006C039EE603A11025EEC600FB62A403C7A3
:1013000001274F8787A606874F87A6FEAE00CDC56B
:101310005EA7049EE7069EEF058795E60587A60172
:10132000874F87A6FBAE00CDC55EA7049EE7069E4D
:10133000EF05C600FBA40F95E703E604F7E605E713
:1013400001F6E707C100FC262FE604F7E605E701F2
:10135000E709C100FD261CC600FBA4802615C601B6
:101360002741030FE6032707410F04A1052604A622
:101370000120014FE70820026F086D08271AA60117
:10138000E706E603A10F2607A601C700F32009A17F
:10139000052605A65AC700F4CDC3EA95E606A70AB6
:1013A00081A7F6C600FE95E704A44027044FCDCDE3
:1013B0002D95E604A4102702A601C700D9E604A4CF
:1013C000202702A601C700DAE604A4082702A60126
:1013D000C70112E604A4042702A601C70111E6040E
:1013E000A402271FA601C7012545010F7CF6A10312
:1013F000251A4FC7012DC7012CC70128F74CC7017B
:10140000242009C70125C70124C7010F95E604A4BC
:101410000127144501107CF6A1032511A601C7017F
:1014200023CDD4DB4F2003C70123C70110C600FF23
:1014300095E704A4082702A601C700DCE604A40778
:10144000C700DDE604A4F0C40113E705E604C70104
:1014500013E605A4402702A601C700DBE605450107
:101460000CFAF740C7010BC60100C700DEC6010435
:10147000C70122C6010595E702C60106E703E70199
:101480007FE707E602FAE706C60107E702C601089A
:10149000E703E7017FE709E602FAE708C601272725
:1014A0001941012CE606C70118E607C70119E6082D
:1014B000C7011EE609C7011F202AE606C70114E678
:1014C00007C70115E608C7011AE609C7011B201462
:1014D000E606C70116E607C70117E608C7011CE6BE
:1014E00009C7011DC60109E702C6010AE703E701B2
:1014F0007FC70121E602FAC70120A70A81CDC3EF09
:10150000C7010D2616CDCE8D4B11C60127C1010E88
:1015100027094FC70126CDCF4F2008A601C70126B6
:10152000CDC3EAC60127C7010E81A603C7010E4A33
:10153000C70126CDC3EFC7010DC6014B4B022010DA
:10154000C6010B5FCB010C24015C4D26035D270710
:101550004FC7010BC7010C4FC701134CCCC3F4A7F5
:10156000F6A68095E704C60127A1012606E604AA8F
:10157000102008A1022606E604AA20E704E604C714
:1015800000FBC6010CE704C600E42706E604AA40F7
:10159000E704C600E32706E604AA08E704C600E657
:1015A000A407EA04E704C700FE6F04C600C42706C8
:1015B000E604AA80E704C600E82706E604AA40E796
:1015C00004C600E72706E604AA10E704C600B4270D
:1015D00006E604AA08E704C600B02706E604AA0443
:1015E000E704C600F02706E604AA02E704C600C125
:1015F0002706E604AA01E704E604C700FF6F04C655
:1016000001264B06E604AA80E704C6012B2706E65E
:1016100004AA40E704C6014F2706E604AA20E7040F
:10162000C600E52706E604AA10E704C60125270B35
:10163000C601242706E604AA02E704C60123270DF3
:10164000CDD4E44D270795E604AA01E70495E60406
:10165000C70100C60122C701016F04E705A11024DC
:1016600008978CD6EA10CCD30DA1202409EE058C66
:10167000D6BE00CCD30DA124241CA020E7014FA28C
:1016800000F7CDC8369EEB02879F95E901978689C2
:101690008A97F6CCD30DA128240DA024E7014FA2F0
:1016A00000F7CDC83120DEA12C2413A028E7014F7C
:1016B000A200F7C6FDF0CEFDF1878AFD20C7A12E5E
:1016C0002409EE058CD6BDDDCCD30DA1302409EE66
:1016D000058CD6E9DBCCD30DA1322413A030E70171
:1016E0004FA200F7C6FDFACEFDFB878AFD2096A12A
:1016F000342408EE058CD6008B2064A1362408EE35
:10170000058CD6008B2058A1362605C6012D204F0A
:10171000A1372605C6012C2046A1382605C601287A
:10172000203DA1392605C600E22034A13B2605CD87
:10173000CDEE202BA13C2605CDCDFE2022A13D26BD
:1017400005C6014C2019A13A2605C6014A2010A160
:101750003E2605C600EF2007A13F2606C600EE95EF
:10176000E704E604C70102A601E706A614E707A6F8
:1017700008E704A0085F48599EEB08879F95E90792
:101780009786898A97F6EE01878AF69EEE058CD7B2
:1017900000FB956C04E604A10E25D8E606EE07874B
:1017A0008AE60CEE0D878AF69EE709E60195E709C1
:1017B000E608E702E609E703E602C70109E608E7EB
:1017C00002E609C7010AA70A81A7FB4F8787A6037C
:1017D000874F87A6FEAE00CDC55EA7049EE7059E97
:1017E000EF048795E60487A601874F87A6FBAE0026
:1017F000CDC55EA7049EE7059EEF049EEF0195E729
:1018000001F6C700FCE603F7E604E701C700FD3D6B
:101810005C26186F028C9EEE03D600FBE75E9E6C82
:10182000039EE603A11025EECDC3DFA70581CDD130
:101830000D2096C60126274741015041020541036C
:10184000152048C6012ECDD4D1C7012EC1012D24AB
:101850005CC7012D2057C6012FCDD4C7C7012FC1AA
:10186000EA5823084501297C45012A7CC6012ECD72
:10187000D4D1C7012EC1012C2433C7012C202EC680
:10188000EA5AC7012E4FC7012F20194FC7012FC693
:10189000012ECDD4D1C7012EC1012C2403C7012CA8
:1018A0004501297C45012A7CA603C70126C60129DA
:1018B000C101282303C70128C1EA5C2405C6012E03
:1018C0002615A601C7012BCDCD2DC6EA5AC7012E7C
:1018D0004FC70129C7012AC6012AC1EA5B25074F64
:1018E000C70129C7012A814FC7012BC7012FC6EAAB
:1018F0005AC7012E4FC70129C7012AC7010CC701CA
:101900000BC70113814FC7012FC6EA59C7012EC764
:10191000012DC6EA5AC7012C8187A60295FECDD5B6
:10192000528A8187A60295FECDD5778A81A601C706
:101930000131C7013081C601312608C601302603B6
:10194000A601814F81C601312707CDCBCF4FC701FB
:101950003181C60130271FCDC61FCDC7A8CDC81302
:10196000CDCC38CDCD16CDCD28CDCCD6CDD495CDC2
:10197000CBE84FC7013081CDD500CDCE38CDCC0DD1
:10198000CDCCE4CDCC3DCDD3E1CDCA9ACDC94CCDA3
:10199000CAAFCCCB19CDD0ABCDD4F3CDC9C3CDC953
:1019A0009BCCD3DC8789A7F99EEF05956F03E706EB
:1019B0006F05E604EB06E701E603E905F74A910443
:1019C000A6FF2002E601A709818789A7F99EEF05F6
:1019D000956F03E7066F05E604E006E701E603E21C
:1019E00005F72A034F2002E601A709810000C0C1C4
:1019F000C1810140C30103C00280C241C60106C0CB
:101A00000780C7410500C5C1C4810440CC010CC09A
:101A10000D80CD410F00CFC1CE810E400A00CAC15A
:101A2000CB810B40C90109C00880C841D80118C04A
:101A30001980D9411B00DBC1DA811A401E00DEC1CA
:101A4000DF811F40DD011DC01C80DC411400D4C1BA
:101A5000D5811540D70117C01680D641D20112C0DA
:101A60001380D3411100D1C1D0811040F00130C0AA
:101A70003180F1413300F3C1F28132403600F6C1CA
:101A8000F7813740F50135C03480F4413C00FCC19A
:101A9000FD813D40FF013FC03E80FE41FA013AC05A
:101AA0003B80FB413900F9C1F88138402800E8C18A
:101AB000E9812940EB012BC02A80EA41EE012EC0CA
:101AC0002F80EF412D00EDC1EC812C40E40124C0BA
:101AD0002580E5412700E7C1E68126402200E2C1DA
:101AE000E3812340E10121C02080E041A00160C0EA
:101AF0006180A1416300A3C1A28162406600A6C1CA
:101B0000A7816740A50165C06480A4416C00ACC199
:101B1000AD816D40AF016FC06E80AE41AA016AC059
:101B20006B80AB416900A9C1A88168407800B8C149
:101B3000B9817940BB017BC07A80BA41BE017EC0C9
:101B40007F80BF417D00BDC1BC817C40B40174C0B9
:101B50007580B5417700B7C1B68176407200B2C1D9
:101B6000B3817340B10171C07080B041500090C129
:101B700091815140930153C052809241960156C0C9
:101B800057809741550095C1948154409C015CC099
:101B90005D809D415F009FC19E815E405A009AC159
:101BA0009B815B40990159C058809841880148C089
:101BB000498089414B008BC18A814A404E008EC1C9
:101BC0008F814F408D014DC04C808C41440084C1B9
:101BD00085814540870147C046808641820142C0D9
:101BE00043808341410081C180814040FFFFFFFF6E
:101BF000FFFFFFFFFFFFFFFFFFFFFFFFFFFFFFFFF5
:101C0000FFFFFFFFFFFFFFFFFFFFFFFFFFFFFFFFE4
:101C1000FFFFFFFFFFFFFFFFFFFFFFFFFFFFFFFFD4
:101C2000FFFFFFFFFFFFFFFFFFFFFFFFFFFFFFFFC4
:102E3000FFFFFFFFFFFFFFFFFFFFFFFFFFFFC836A2
:102E4000C831C413C3FEC4BBC1AFFFFFFFFFAA5507
:102E5000FFFF1FFAA1082000C0E0734142FFFF00FE
:102E600000003132363430333731000000000000CA
:102E70000000701504B005100501010501080820C7
:102E800055000000AA00000033000000CC00000044
:102E9000EE00000011000000F00000000F00000034
:102EA000106401011107030C4E01044C1EC814FFED
:102EB000FFFFFFFFFFFFFFFFFFFFFFFFFFFFFFFF22
:102EC000FFFFFFFFFFFFFFFFFFFFFFFFFFFFFFFF12
:102ED000FFFFFFFFFFFFFFFFFFFFFFFFFFFFFFFF02
:102EE000FFFFFFFFFFFFFFFFFFFFFFFFFFFFFFFFF2
:102EF000FFFFFFFFFFFFFFFFFFFFFFFFFFFFFFFFE2
:102F0000FFFFFFFFFFFFFFFFFFFFFFFFFFFFFFFFD1
:102F1000FFFFFFFFFFFFFFFFFFFFFFFFFFFFFFFFC1
:102F2000FFFFFFFFFFFFFFFFFFFFFFFFFFFFFFFFB1
:102F3000FFFFFFFFFFFFFFFFFFFFFFFFFFFFFFFFA1
:102F4000FFFFFFFFFFFFFFFFFFFFFFFFFFFFFFFF91
:102F5000FFFFFFFFFFFFFFFFFFFFFFFFFFFFFFFF81
:102F6000FFFFFFFFFFFFFFFFFFFFFFFFFFFFFFFF71
:102F7000FFFFFFFFFFFFFFFFFFFFFFFFFFFFFFFF61
:102F8000FFFFFFFFFFFFFFFFFFFFFFFFFFFFFFFF51
:102F9000FFFFFFFFFFFFFFFFFFFFFFFFFFFFFFFF41
:102FA000FFFFFFFFFFFFFFFFFFFFFFFFFFFFFFFF31
:102FB000FFFFFFFFFFFFFFFFFFFFFFFFFFFFFFFF21
:102FC000FFFFFFFFFFFFFFFFFFFFFFFFFFFFFFFF11
:102FD000FFFFFFFFFFFFFFFFFFFFFFFFFFFFFFFF01
:102FE000FFFFFFFFFFFFFFFFFFFFFFFFFFFFFFFFF1
:102FF000FFFFFFFFFFFFFFFFFFFFFFFFFFFFFFFFE1
:10300000FFFFFFFFFFFFFFFFFFFFFFFFFFFFFFFFD0
:10301000FFFFFFFFFFFFFFFFFFFFFFFFFFFFFFFFC0
:10302000FFFFFFFFFFFFFFFFFFFFFFFFFFFFFFFFB0
:10303000FFFFFFFFFFFFFFFFFFFFFFFFFFFFFFFFA0
:10304000FFFFFFFFFFFFFFFFFFFFFFFFFFFFAA558F
:10305000FFFF483620622000C0D0B8484100010080
:1030600000003132363336333434000000000000C3
:103070000000241E020302EC00FDFFFFD0FFFFEC66
:1030800002EC1FEC22FDFFFFD0FFFFEC02FDFFFF73
:10309000D0FFFFFFFFFFFFFFFFFFFFFFFFFFFFFF6F
:1030A000FFFF9B6EA5436E01204507D035236E447C
:1030B00030A601C70240AE18CF0243A66AC7024439
:1030C0001B016E080D6E040E6E08899A8187898730
:1030D000BF40AE064839405BFBB74DB640B74C3FEA
:1030E00088554C8587CD280686844F95F7BB4D873C
:1030F0004FB94C878A88F641FF04A6012008957CC9
:10310000F6A14025E84FA703818789874D26035DF7
:103110002718957F20199EE6019EEB09879F95E968
:1031200008878A88F641FF05A601A70381957CF6EA
:103130005F9EE0034F9EE20225DC9EE607A18C26FF
:10314000059EE60627299E6F0120189EE6019EEB4C
:1031500007879F95E906878A88F69EEE018CE78CA3
:10316000957C5F9EE6019EE0034F9EE20225DC9582
:10317000E607B74EE608B74FEB0287B64EE9019770
:1031800086A001B78B9FA200B78A554E8587CD28B0
:10319000098684554EA601CD28032504A6012001E9
:1031A0004FA70381A7FDC60240A4BFC702401D3040
:1031B0004FC70056C70055957F6F01B60EB60FE793
:1031C00002120DC60057B70FB600A802B700C7FF1E
:1031D000FFB60EA530270B450056F6AA02F7A6014A
:1031E00095F70F0E1F450055F67C8C97B60FD7004C
:1031F00057CE0055D60057B70FA60195F7C6005514
:10320000A11024226D0126147D272818204F0E209E
:103210000049E7021F20A601E70120170F201445EF
:103220000056F6AA04F7130DB643A1A52613CDEE5A
:1032300006200EB643A1992695C602402A908E20FC
:103240008DC60240AA40C702401C30C60056A703E4
:10325000814555AA35448E81B642B1502621C6001B
:1032600057410604A1192617B1412713B7413C5114
:10327000B651A1042613C6FDECCEFDED878AFCC62F
:103280000057B7414E42503F5181A7F8C60056271C
:1032900003CCEFA1CE0059C6005A9EE7059EEF046D
:1032A000C6005B95E702C60058E70741011D4102D1
:1032B00024A1032603CCEEEDA1042603CCEF58A1F4
:1032C000052603CCEF61A610CCEFA1450058F6AA65
:1032D00080F7CCEFA4E602A10B2505A620CCEFA138
:1032E000450058F6AA80F7957F6F012021E601ABD3
:1032F000058C878B95E603EB0687E60295E9068742
:103300008A88F68A88D70057956C0126017CE602E8
:1033100099E2014FF290D67F6F016F052010EE0108
:103320008CD6005795EB05E7056C0126017CE6017C
:10333000A00FF6A20091E7E605C70066CCEFA4E671
:1033400002A10B2505A620CCEFA17F6F016F0620FF
:1033500010EE018CD6005795EB06E7066C012601AE
:103360007CE601A00FF6A20091E7E606C100662701
:1033700004A604207E450058F6AA80F7957F6F01C9
:10338000201DE6019EEB0587F695E90487E602AB72
:10339000058C97D600578A88F7956C0126017CE644
:1033A0000299E2014FF290DA204CE603EE04878A9C
:1033B000FD2043450058F6AA80F7C6EFF1E701C6A5
:1033C000EFF2E702C6EFF4E703C6EFF5E704C6EF56
:1033D000F6E705C6EFF7E706C6EFF8E707C6EFF929
:1033E000E708C6EFFDE709C6EFFEE70AC6EFFFE70D
:1033F0000B2003C70058A708819B6E9943450240E4
:1034000094AE61CF0243A6A8C70244C60240AA10E8
:10341000C70240C60240C60240A47FC70240C7FFA1
:10342000FFCDED520F30018EC60057410604A119A1
:103430002604B14126018EB741CDEE38C60240AA1E
:103440001020D8474D2D47333042303032325F5054
:103450003032000000000087A7F94A2703CCF0951E
:10346000A6BE95E7056F06C6BE3AC701216F0420C8
:103470006C4848EB06874FE9059786AB3E24015C14
:103480009EE7049EEF03899EEE058AE6019EE70211
:103490009E6F01F695FAF7EE04588CD701249EE64C
:1034A00002D7012595E6044848EB06874FE90597C2
:1034B00086AB4024015C9EE7049EEF03899EEE05E7
:1034C0008AE6019EE7029E6F01F695FAF7EE045830
:1034D0008CD701229EE602D70123956C04E604C135
:1034E0000121258DA70881A60095E705A68CE70692
:1034F000C600AEC701206F04206C4848EB06874F1A
:10350000E9059786AB2624015C9EE7049EEF0389BC
:103510009EEE058AE6019EE7029E6F01F695FAF798
:10352000EE04588CD701249EE602D7012595E604C7
:103530004848EB06874FE9059786AB2824015C9E37
:10354000E7049EEF03899EEE058AE6019EE7029E50
:103550006F01F695FAF7EE04588CD701229EE60229
:10356000D70123956C04E604C10120258DCCF0928F
:1035700087A7F94FC70127C701284C95E706C60161
:103580002AA08CE705C60129A200E704CCF230C6C8
:103590000134C0013687C60133C2013597864C26F7
:1035A000015C9EE7049EEF03CB0128879FC901279A
:1035B00097869EE0069F95E204250FE605C0012848
:1035C000E701E604C20127F72007E602F7E603E772
:1035D00001C6013687C6013587C60128AB8C87C670
:1035E0000127A9008795E605EE048789C6FA06CE6D
:1035F000FA07878ACDF9DFA7044D27044FA7088172
:1036000095E603E001E703E602F2E7026D032660B8
:103610006D02265CC601265F4C26015CBF4095EE1C
:1036200007879EE30126034FB140862743450126C5
:103630007CF65F4859898A97D60124C70135D6019F
:1036400025C70136C601265F4859898A97D60122C7
:10365000C70133D60123C7013495E601E1052605EC
:10366000F6E104271BF6C70127E601C7012820124F
:10367000C6013695EB01C70136C60135F9C70135DC
:103680006F06E6064A2603CCF13DA601A70881CDC8
:10369000F9244D2709CDF9374D2703A601814F8124
:1036A000CDF9484D2709CDF95B4D2703A601814F80
:1036B00081A7FEA60195F7A620E701200CF6EE01F2
:1036C000878A7F956C0126017CE601A050F6A20155
:1036D00025EBC7FFFFA7028187A7F3956F096F0A44
:1036E0006F0820735F48599EEB12879F95E91197E9
:1036F00086898A97F69EE707E60195E707E6085F61
:1037000048599EEB14879F95E9139786898A97F607
:103710009EE70CE60195E70CE6072031E606E70296
:10372000EE079EEF04878AE6019EE7029E6F019EE8
:10373000E706F695FAE704E60AEB05E70AE609E983
:1037400004E709E607AB02E70724026C06E00CE693
:1037500006E20B25C76C08E608E10D25876D0A26F1
:10376000086D092604A60120014FA70E8187A7FE38
:10377000A63695E701E6024B07E601CDF5E020020B
:10378000A602A70381A6FCAEF981A600AEFA81A627
:10379000BFC701384FC70139C7013AC7013BC7014D
:1037A0003CC7013DC7013EC7013FCCF984C7FFFFBD
:1037B0008187A7F5A60195E702E60B4B05CDF33807
:1037C0002003CDF3339EE7079EEF06899EEE088A1D
:1037D000F69EE708E60195E708E605EE06878AE625
:1037E000029EE704E60395E704EB0887E60395E904
:1037F000089786A0019EE70B9FA20095E709F7E6D0
:103800000AE701FE8789C6FA04CEFA05878ACDF950
:10381000DF95E7022616E601E1042605F6E1032717
:103820000B6D0126017A6A01E60120D7E602A70C9A
:1038300081C6EC0D2702A6018187A7FE4848AB2D63
:1038400095E7014FA9ECF7E601FEA7038187A7FEE4
:103850004848AB2F95E7014FA9ECF7E601FEA70317
:1038600081A7FAA6EC95E702A620E703C6EC21E7BC
:10387000017FE705C6EC20FAE704E605EE04A7069B
:1038800081A605AEEC81A609AEEC8187A7FCA60156
:1038900095F7A638E701CDF42F9EE7049EEF039538
:1038A000F6EE01878AA67FF7A6AFE70195E6042723
:1038B0000B41011D41023D41034E2069CDF9484DA8
:1038C0002763CDF95B4D275DC6E9EC87CEE9ED2096
:1038D0001FCDF9484D274ECDF95B4D2748CDF9480E
:1038E0004D2742CDF95B4D273CC6E9EE87CEE9EF87
:1038F0008AFD2003CDF42F9EE7049EEF0395F6EE9C
:1039000001878AA69FF7201DCDF4349EE7049EEF21
:103910000395F6EE01878AA69FF795E602EE0387E8
:103920008A6F026F0395F6EE01878AF6A19F264BF8
:1039300095E602EE03878AF69EEE01899EEE038AE3
:10394000E70295E602EE03878AE6019EEE01899E74
:10395000EE038AE70395E602EE03878AE6029EEE0F
:1039600001899EEE038AE70495E602EE03878AE664
:10397000039EEE01899EEE038AE705A70581CDF23D
:103980004E4D2706CDF23D4D26064FC70110AD0125
:1039900081CDEC50CDF25FCDF8D3CDF9BAC6011090
:1039A0002703CDF33DCCF8E287C600582750C60068
:1039B000594B12C6012B4B1EAE00CF0129A68CC756
:1039C000012A4F200EC6012B4B0CA68CC7012A4F93
:1039D000C70129C7012B957F201C450129F687E6E1
:1039E000016C0126017C978A898B95EE028CD600AA
:1039F0005A8A88F7957CF6C1005825DE2021A60159
:103A0000C7012BC60059CDF31B4D271341021041AE
:103A1000031C410419410516410604A68F2002A685
:103A20009FC70138A66FC70139CDF9848A81A67F67
:103A300020EF87A7FAA60195E7026F03CCF8BEC670
:103A40000131271FA1012603CCF67EA1022603CC5B
:103A5000F6A0A1032603CCF6BDA1042603CCF75D96
:103A6000CCF862E606A13426094FC701316F03CCBA
:103A7000F6B7A600E704A68CE705C6008EC7012EA0
:103A8000C6008FC70137C60099C7012FC6012EA4F3
:103A9000E0A1202618A602C701314AE702C600B1FC
:103AA000C701324FC70130CDF005CCF8BEC6012E9C
:103AB000A4E0A1A02616A6BEE7046F05C6BE25C7D2
:103AC00001324FC701304CC701312020A604200924
:103AD0004FCDF35F4D270EA60395E7034FC7013186
:103AE000CDF8D32024A604C70131A60195E702CC66
:103AF000F8BEA601CDF35F4D26DDCDF35F4D26D791
:103B0000A603C701314A95E703956F02CCF8BEE6DC
:103B100006A1342603CCF7B4C6012C4B1F4FC701B6
:103B200026C7012CCE0124CF0135C60125C7013699
:103B3000CE0122CF0133C60123C70134C60120CDF7
:103B4000F11E4D2603CCF862C601264CC101202689
:103B500013C60134CE01334C26015CC001369FC22E
:103B6000013525E1C601264CC101202637C60134A6
:103B7000CE01334C26015CC101362628C30135260F
:103B800023C6012F41011D450122898B450124894E
:103B90008BC60120CDF286A704410108A601CDF312
:103BA0005FCCF862A60295E7036F024CCCF8BBE647
:103BB00006A134266CC601265F4C26015CBF40CEB0
:103BC00001218C879EE30126048B86B14086264026
:103BD000C60134CE01334C26015CC101362631C307
:103BE0000135262CC601305F4C26015CBF40998709
:103BF000C601329EE2018B86B240869113450130A8
:103C00007CA601C7012D956F036F02A604CCF8BBFB
:103C1000A60495E7036F024FC70131CDF8D3CCF866
:103C2000BEC6012D4B57A600E704A68CE705C600CB
:103C30008EC7012EC60099C7012FC601305F4C26E2
:103C4000015C9EE7029EEF01C6012EA40F5F9EE17C
:103C50000226BD9EE30126B8A601CDF0054FC7019F
:103C600026CE0124CF0135C60125C70136CE01225B
:103C7000CF0133C60123C701344FC7012DC601212F
:103C8000CDF11E4D272EC601265F4C26015CBF409C
:103C9000CE01218C879EE30126048B86B1408626C7
:103CA00018C60134CE01334C26015CC001369FC2D8
:103CB00001352405A603CCF7C0C601265F4C2601BA
:103CC0005CBF40CE0121879EE30126048B86B14074
:103CD000862632C60136C00134C60135C2013325FD
:103CE00024C6012F41011E450122898B45012489EB
:103CF0008BC60121CDF286A7044101094FCDF35FA8
:103D0000A605CCF7C0A60295E7036F0248C70131AC
:103D1000956D022703CCF5EDE603A70781A601C741
:103D20000110CCF53F4FC701314CC7012DC7012C05
:103D300081CCF33DC60240AA40C70240CDF99D2088
:103D4000FB87A64FC701394FC7013AC7013BC701DF
:103D50003CC7013DC7013EC7013FCDF96C95F72730
:103D600007410408A68F2006A69F2002A67FC70150
:103D700038CDF9848A81C6EBFDA155260ACEEBFC2D
:103D8000A3AA2603A601814F81C6EBFF4C2609CECC
:103D9000EBFE5C2603A601814F81C6E9FDA15526F5
:103DA0000ACEE9FCA3AA2603A601814F81C6E9FF3A
:103DB0004C2609CEE9FE5C2603A601814F8187A629
:103DC0003495F7CDF5E08A8187C6005895F7CDF494
:103DD00039CDF9848A8187957F8C9EEE01D6013892
:103DE000D700579E6C019EE601A11025ED8A81CD7A
:103DF000ED524D2616C60057414F07416F0741AFA0
:103E00000781CCF8EFCCF556CDF9768187957F8C7C
:103E10009EEE014FD700579E6C019EE601A108253A
:103E2000EFA601C7012B8A81CCF8D3CDF8D3CCF80B
:103E3000DF9EE603879EE6029EE7049EE6059EE778
:103E4000029EE6039EE7059EEF0388868B810008AD
:103E500003A800B002F8EC7BECB7FFFFFFFFFFFF09
:103E6000FFFFFFFFFFFFFFFFFFFFFFFFFFFFFFFF62
:103E7000FFFFFFFFFFFFFFFFFFFFFFFFFFFFFFFF52
:103E8000FFFFFFFFFFFFFFFFFFFFFFFFFFFFFFFF42
:103E9000FFFFFFFFFFFFFFFFFFFFFFFFFFFFFFFF32
:10416000FFFFFFFFFFFFFFFFFFFFFFFF6E431E3F4D
:104170001F6E1036C6FFC0B7383F006E80016E025A
:10418000046EA0056E200B6E0F096EFF0A4501C07C
:10419000A683F7AF0165024026F894A7FCC6FE018E
:1041A000C700546E0449C600542A043F49202E55C6
:1041B000476555AA26056E0549202255446555AA2E
:1041C00026056E07492016C60054A52027056E0354
:1041D00049200AC60054A54027036E06493F473FC1
:1041E000483F443F45C7FFFFCDF52CC6E9F6CEE971
:1041F000F7878AFC818BC6E9F0CEE9F1878AB64061
:1042000087FC8BB64087B643A1A52610CDF35BC6CD
:104210000240A47FC7024086B7408A80C6E9F4CE38
:10422000E9F5878AFC3C42B6301F30808BC6E9F244
:10423000CEE9F3878AB64087FC838080FFFFEFA733
:10424000F8CBF42FF40FF3E7F3FBF3DFF434FFFFC5
:10425000FFFFFFFFFFFFFFFFFFFFFFFFFFFFFFFF6E
:10426000FFFFFFFFFFFFFFFFFFFFFFFFFFFFFDE976
:10427000FDE9FDE9FDE9FDB0FDE9FDE9FDE9FDE947
:10428000FDE9FDA3FDE9FDE9FDE9FDE9FDE9FDD35A
:10429000FDDAFDE9FDE9FDE9FDE7FDE9FD1A4C4028
:1042A00000000000F0B5164D87B0284601F030FA46
:1042B00000244FF40072282301264FF48277284609
:1042C00001A9ADF80E20ADF81030ADF80440ADF8FE
:1042D0001440ADF81240ADF80840ADF80A40ADF812
:1042E0000670ADF80C6001F049FA2146284601F04D
:1042F00073FA3146284601F061FA07B0F0BD00BFFD
:104300000038004080B5012186B041F21D0004252F
:1043100001F0CEF901214E4801F0D6F908234FF003
:10432000030918270DEB05014A48ADF804308DF854
:10433000075001F013F90DEB050146480024ADF8D4
:1043400004508DF806908DF8077001F007F94FF4CE
:10435000E1320C2302A940480292ADF81230ADF8C8
:104360000C40ADF80E40ADF81040ADF8144001F02F
:10437000B5FA0121384801F00FFB4FF480581023A3
:10438000364E0DEB050130468DF807308DF806905E
:10439000ADF8048001F0E2F84FF42043C6F8108035
:1043A0000DEB05013046ADF804308DF8077001F0D3
:1043B000D5F84FF4804330460DEB0501ADF80430DD
:1043C0008DF8075001F0CAF8FFF76CFF4FF48073C7
:1043D0000DEB05011F48ADF804308DF8075001F0D2
:1043E000BDF80121084601F06FF921464FF08040E9
:1043F00001F056FA01214FF0804001F06BFA0122E2
:104400004FF08040114601F063FA1C210123022283
:1044100002A88DF808108DF80B308DF80A408DF841
:10442000092001F069F80E49CB6813F0807309D1B7
:10443000C8680C4A40F08070C8605360136843F04D
:1044400001031360084800F093FF00F0CDFAFEE787
:10445000054002000008014000440040000C0140FB
:10446000F0ED00E0001000E0085A00080A2810B53E
:1044700004460BD08021074801F0A0FA0028F9D0AB
:10448000A1B2044801F096FA204610BD0D20FFF7B6
:10449000EDFFEFE70044004030B5002185B0044651
:1044A0004FF0804001F0FCF900254BF680321023DC
:1044B00001A9013C4FF08040ADF80420ADF8063072
:1044C000ADF80840ADF80A5001F094F901214FF021
:1044D000804001F0FFF9044B01214FF080401D6046
:1044E00001F0DEF905B030BD5408002008B5FFF733
:1044F000D3FF024A1368002BFCD008BD54080020EB
:10450000014B1868704700BF5408002008B500210F
:104510004FF0804001F0C4F901214FF0804001F0DC
:10452000D9F90122014B1A6008BD00BF54080020D0
:104530002DE9F041002317461925032288B0804653
:104540001F4800930C460193029303938DF800508B
:104550008DF8012000F00CFF77B30DF10E050A2F46
:10456000394628BF0A214FEA182201AB8DF8038093
:104570008DF8041066188DF8022014F8012BB4424F
:1045800003F8012FF9D10024684688447F1A00F00F
:10459000E3FB0DF1FF3313F8011F9D420C44FAD1E8
:1045A000102201230DEB020168468DF80F403446BE
:1045B00000F0BCFA002FD2D108B0BDE8F08100BFF6
:1045C000105A00080023192103222DE9F0433D4829
:1045D00089B0D0F8008000930193029303938DF883
:1045E00000108DF8012000F083FC374800F0C0FE79
:1045F000B8F1000F62D04FF0B009344B0DF1FF3726
:104600000DF10E0544460A2C28BF0A244FEA192151
:1046100001AA8DF803908DF804401E198DF8021040
:1046200013F8011BB34202F8011FF9D16846A144F7
:10463000A8EB040800F090FB00243B4613F8012F80
:104640009D421444FAD1102201230DEB0201684669
:104650008DF80F4000F06AFA3346B8F1000FD1D15F
:10466000B02000F009FC09214FF46C4000F0C0FBC1
:104670000DF10F0400F03CFC01F0A6F907F8010F62
:10468000A742F9D101F0A0F969468DF80000102287
:104690006020FFF74DFF102269466020FFF748FFBA
:1046A0004FF4FA70FFF722FF0A21602000F0A0FB10
:1046B000FF2000F05BFC09B0BDE8F0830DF1FF378F
:1046C000CEE700BF4E020008305A00080C01000877
:1046D0002DE9F04100251927022688B0040A8DF83B
:1046E0001300481E092805958DF812400695079578
:1046F0008DF814108DF810708DF811601FD8984641
:1047000004A8144600F028FB04A800F0B1F94346C1
:1047100004A81022694600F009FA0546B0B1621EED
:104720000DF1FF330DF10F0013F8011F834202F862
:10473000011FF9D10125284608B0BDE8F0810748DE
:1047400000F016FE284608B0BDE8F081044800F0ED
:104750000FFE284608B0BDE8F08100BF505A00089F
:104760006C5A000830B501230024054685B0684620
:10477000009401948DF801300294039400F0ECFA57
:10478000684600F075F9234629466846102200F075
:10479000CDF905B030BD00BF10B55378822B22D1C2
:1047A0009478D37843EA0423834215D113798B425A
:1047B00020D10023511E02F10E0411F8010F034411
:1047C000A142DBB2F9D1D17B8B4211D01A460D4800
:1047D00000F0CEFD002010BD82B219460A4800F05C
:1047E000C7FD002010BD094800F0C2FD002010BD2B
:1047F000012010BD8AB20648194600F0B9FD00201C
:1048000010BD00BFC45A0008A05A00088C5A000806
:10481000E45A00082DE9F04F89B00392002900F016
:10482000898080460F464FF00A0901244FF0000BA3
:1048300000900191B9454E4628BF3E460BF1010557
:104840005FFA86FA0AE03C4800F092FD0A2D24D86F
:10485000B146CDF80080019701242544002304AA25
:1048600051464046FFF734FF05F1FF3BC8B11CB38A
:10487000BB1B38D104A8FFF775FF04460028E2D01F
:1048800004AA31464046FFF787FF044600283ED180
:104890002A4800F06DFD0A2DDAD9204609B0BDE89E
:1048A000F08F0290264800F063FD0A2D029BD3D9B9
:1048B000184609B0BDE8F08F04AA49460098FFF7F2
:1048C0006BFFC0B1039909F1FF30084405AA4B1EE4
:1048D00012F8011F03F8011F9842F9D1039B4B44C2
:1048E0000393BB1BC6D00197CDF800801F46B04490
:1048F000B14600249EE7134800F03AFD0A2DCCD8BB
:104900004E46019FDDF800805FFA89FAA4E703991B
:10491000731E0B444A1E05A911F8010F02F8010F7E
:104920009342F9D1BBF10A0F8CBF0020012009B0DE
:10493000BDE8F08F0120B1E71C5B0008285B000890
:10494000045B0008105B00082DE9F0414FF00008FF
:10495000ADF5007D1E4800F00BFD1E4B1E4E5F683E
:1049600001F032F8C0F30805002D08BF012505EB62
:104970000803B3F5804F88BFC8F580456A462946CD
:1049800008F53E40FFF746FF6A4606EB08035C1950
:1049900013F8010B12F8011B884214D19C42F7D185
:1049A000A844B8F5804FDBD30A4A0C4B51680C4839
:1049B000C91BA3FB0131C1F38F2100F0D9FC0DF518
:1049C000007DBDE8F081074800F0D2FCECE700BFB5
:1049D000345B0008001000E052020008F11976056F
:1049E000485B0008585B000808B5094800F0C0FCA7
:1049F00000F092F900F0C2F900F0C0F90A20FFF7C8
:104A000075FDFFF7DFFDBDE80840FFF79DBF00BF64
:104A1000805B0008F8B5064611480D4600F0A8FC7A
:104A2000104F741E0F3614F8011F384600F0A0FC1A
:104A3000B442F8D10C4800F09BFC0C4800F098FC04
:104A4000084E6C1E0F3514F8011F304600F090FC24
:104A5000AC42F8D10448BDE8F84000F089BC00BF82
:104A6000985B0008A05B0008C45B0008A85B000816
:104A7000002310B4421E00F10E0412F8011F0B4473
:104A8000A242DBB2F9D1C37310BC7047224B2DE9AF
:104A9000F0419B6805460C46204803F4807190461F
:104AA00000F066FC4FF480501D4B1E4A19465061C1
:104AB0005A684B689B1AEF2BFBD91B4A138999073D
:104AC000FCD5B8F1000F16DD26462F4616491448CE
:104AD00004EB080E17F8013B8B810B89DB07FCD533
:104AE0008B8906F8013B426843689B1AB3F5965FD1
:104AF000FAD37645EED10A4A516853685B1AB3F58A
:104B0000796FFAD34FF48052064B21462846BDE810
:104B1000F0411A61FFF77EBF00080140B05B00085A
:104B2000001000E0000C0140003800402DE9F04783
:104B30002B4F054638680C4690461E46002835D057
:104B400000223A600127274B274A9B6803F48073B1
:104B500013604FF48051254B254A596113899907F9
:104B6000FCD5B8F1000F15DDA646AC46204A214918
:104B7000A0441CF8013B93811389DB07FCD5938982
:104B80000EF8013B48684B681B1AB3F5B46FFAD3B3
:104B9000C645EED14FF48052144B1A611EB1214626
:104BA0002846FFF737FF3846BDE8F0873220FFF789
:104BB00073FCDFF834A00B4F02E0FFF7A1FC50B903
:104BC000BB68DAF8002003F480799145F5D001271D
:104BD000CAF80090BDE7084800F0CAFB0027F7E7D5
:104BE000000000200008014058080020000C01408F
:104BF00000380040001000E0BC5B000838B500221F
:104C000004460321033000F0F1F901210246204659
:104C100000F0ECF96278C0F30F239A4220D1A37818
:104C2000C0B283421CD1144D6279EB882A718BB1DA
:104C3000012B0DD143F6FE722989914216D8A07B33
:104C40000E4A5054E07B0A44507001210C4A116016
:104C5000013BEB80E378002003F00703AB7238BD23
:104C6000084800F085FB4FF0FF3038BD064800F0E3
:104C70007FFBEB88E9E700BF5808002070080020A0
:104C800070480020C85B0008DC5B000870B5044673
:104C90001E481F49436894F90020CD5C0133022B64
:104CA0004360C8BF002322F0300242EA05024FF001
:104CB0000005C8BF436017482270827A037902F06A
:104CC000070631440E79C18803F0400342F04002E8
:104CD00043F010030229657266712271E3700FD0F0
:104CE000A573E57300220621E01C00F07FF9012185
:104CF0000246204600F07AF9030AA070637070BD86
:104D000083891A0AE373A273ECE700BF0000002056
:104D1000885B00085808002000230F2210B50D48BA
:104D200088B004930593069307938DF810200A2406
:104D300000F01EFB04A8FFF7A9FF102269460DEB47
:104D40000200FFF7A3FE6846FFF758FF013CF1D1D0
:104D500008B010BDF85B00080649074A0B6910B49B
:104D600003F001042244127B01330B61027010BC7A
:104D7000704700BF58080020885B0008002301220C
:104D80002DE9F041174888B00493059306930793E3
:104D90008DF811200A2600F0EBFA134FDFF84C8053
:104DA0000DF11E05396904AA01F0010343441B7B80
:104DB000013100248DF81030396101E012F8013F13
:104DC0002344AA42DCB2F9D11022012369460DEB3B
:104DD00002008DF81F40FFF7A9FE013EE2D108B0A6
:104DE000BDE8F081645C000858080020885B00087A
:104DF0002DE9F041002302461925022488B0060A55
:104E00001A488DF8126005938DF810508DF8132014
:104E1000069307938DF814108DF811400A2600F0C0
:104E2000A7FA134FDFF84C800DF11E05396904AA6B
:104E300001F0010343441B7B013100248DF8103045
:104E4000396101E012F8013F2344AA42DCB2F9D1F2
:104E50001022012369460DEB02008DF81F40FFF779
:104E600065FE013EE2D108B0BDE8F081845C000837
:104E700058080020885B0008F0B51922002404239C
:104E8000054689B01748049405948DF810208DF8D4
:104E900011300694079400F06BFA1348134B016924
:104EA0002E0A01F001073B441B7B0131016104AA7A
:104EB0008DF813508DF812608DF810300DF11E0131
:104EC00001E012F8013F23448A42DCB2F9D104A880
:104ED0000123102269468DF81F40FFF727FE09B015
:104EE000F0BD00BF985C000858080020885B0008EF
:104EF0000023192105222DE9F041194888B00493B7
:104F00000593069307938DF810108DF811200A264B
:104F100000F02EFA134FDFF850800DF11E053969AD
:104F200004AA01F0010343441B7B013100248DF8E6
:104F30001030396101E012F8013F2344AA42DCB28B
:104F4000F9D11022012369460DEB02008DF81F40B4
:104F5000FFF7ECFD013EE2D108B0BDE8F08100BFF3
:104F6000B05C000858080020885B00080023192165
:104F700007222DE9F04188B004938DF812001848FB
:104F80000593069307938DF810108DF811200A26CB
:104F900000F0EEF9134FDFF850800DF11E0539696E
:104FA00004AA01F0010343441B7B013100248DF866
:104FB0001030396101E012F8013F2344AA42DCB20B
:104FC000F9D11022012369460DEB02008DF81F4034
:104FD000FFF7ACFD013EE2D108B0BDE8F08100BFB3
:104FE000E05C000858080020885B000800290FDDFD
:104FF00030B4084D014410F8014BD3B2634035F88A
:105000001330884283EA1222F5D1104630BC704733
:1050100010467047FC5C000870B51E46092E02F170
:10502000FF33044615D8002BD8BF012006DD0D46FE
:10503000234404F8015B9C42FBD110460A4BA3FBBE
:105040000623DB0803EB8303A6EB43033033237013
:1050500070BD054D1A46A5FB0653DB08FFF7DCFFC4
:1050600004440130EAE700BFCDCCCCCCF8B5002B2E
:1050700004460F4624DB092B1E4602F1FF3216DCE4
:10508000002A36DD11462546013905F8017BFBD1A2
:10509000002B144428DB501C174BA3FB0623DB0812
:1050A00003EB8303A6EB430330332370F8BD124BAD
:1050B000A3FB0653DB08FFF7D9FF04440130EBE7FD
:1050C00013F1090FC3F1000602F1FF3508DA0A4BAC
:1050D0002A46A3FB0653DB085B42FFF7C7FFECE75A
:1050E000023A002ACEDC00222D23901C04F8013B5A
:1050F000D2E70120D0E700BFCDCCCCCC2DE9F041E8
:1051000082B0089E551E5FEA161E0446984620D1BE
:10511000002DD8BF012006DD0F46631904F8017B7E
:10512000A342FBD1104606F00F06092E0CD9B8F1A8
:10513000000F04D15736267002B0BDE8F081373633
:10514000267002B0BDE8F0813036267002B0BDE8AE
:10515000F081CDF800E02A46FFF7D0FF044401308B
:10516000E1E700BF2DE9F0410F4682B098460646C0
:1051700008B100230370002513785BB1BD4280F0B5
:105180009D80252B0ED03370013213780135013606
:10519000002BF3D1AF4240F291802846337002B029
:1051A000BDE8F0815378252B34D0302B37D0541CF8
:1051B000A3F13002092A4FF0200138D8002202EB77
:1051C000820203EB420214F8013F303AA3F13000AF
:1051D000092802F0FF02F2D910462844874238BF5E
:1051E0007A1BA3F1580338BFD2B2202B6ED8DFE868
:1051F00003F05A6D6D6D6D6D6D6D6D6D6D52496D18
:105200006D6D6D496D6D6D6D6D6D6D6D6D386D2F65
:105210006D6D21003370023201350136ACE79378B1
:10522000941CA3F13002092A4FF03001C6D90020A6
:105230000246D2E7D8F80030304600930023FFF74B
:105240005DFF034608F10408621C1E44054493E711
:10525000D8F800303046FFF7DFFE08F104080346B7
:10526000F2E7D8F8001008F1040E0B78A3B3324629
:1052700002F8013B11F8013F901B002BF8D1F046DA
:105280000346E1E7D8F800303046FFF7EFFE08F1BB
:1052900004080346D8E70123D8F8002018463270E6
:1052A00008F10408D0E7D8F8003030460093012315
:1052B000FFF724FF08F104080346C5E7013D00237A
:1052C000284606F8013C02B0BDE8F0814FF0FF35FA
:1052D000284602B0BDE8F081F0461846B4E700BFAA
:1052E00070B50446007858B10E46002503E014F866
:1052F000010F013528B13146FFF7B8F8431CF6D14C
:1053000070BD284670BD00BFF0B596460F46ABB0E5
:10531000154D01AC06460FCD0FC40FCD0FC42D683F
:1053200073463A460AA880212560FFF71BFF7F28B5
:1053300012DC9DF8280058B10AAD002403E015F8EE
:10534000010F013428B13146FFF790F8431CF6D124
:10535000044620462BB0F0BD044B01A81B68D96859
:10536000FFF7BEFFFEE700BFFC5E00081000002054
:105370000FB400B5074A83B004AB53F8041B1068A0
:105380001A4680680193FFF7BFFF03B05DF804EB96
:1053900004B0704710000020FEE700BF08B5104AB7
:1053A000104B93420CD2D843104420F00300043039
:1053B0000D4A184452F8041B43F8041B8342F9D1E8
:1053C0000A480B494FF000028842B8BF40F8042B4E
:1053D000FADB00F00FF8BDE80840FEF793BF00BF0E
:1053E0005404002000000020205F00085408002022
:1053F0007448002030B400244FF41F053A4B3B4959
:10540000186882B040F00100186058681A460140E0
:105410005960196821F0847121F48031196019688C
:1054200021F480211960596821F4FE0159609D60C2
:1054300000940194196841F48031196003E0009BE5
:10544000B3F5A06F09D0136803F400330193009BF8
:1054500001330093019B002BF1D0234B1B6813F405
:10546000003318BF01230193019B012B06D04FF09D
:1054700000621F4B9A6002B030BC70471D491A4B46
:1054800008681A4640F010000860086820F007001D
:105490000860086840F00100086059685960596860
:1054A0005960596841F480615960596821F47C1150
:1054B0005960596841F488115960196841F0807148
:1054C000196013689B01FCD55368074923F0030357
:1054D0005360536843F0020353604B6803F00C03BE
:1054E000082BFAD1C3E700BF001002400000FFF80C
:1054F00000ED00E000200240C3785BB90121037891
:1055000014485A0903F01F03203201FA03F340F84C
:1055100022307047104B0F21DA6870B4D243012457
:1055200085784378C2F30222C2F1040621FA02F21E
:105530002A40B34001781343064A1B0101F01F05BE
:105540005018DBB2AC4080F80033490942F82140E2
:1055500070BC704700E100E000ED00E02DE9F04193
:10556000CD78EB0648BF8B78098805F00F0E48BF51
:105570004EEA030E11F0FF0F20D0002301274FF059
:105580000F08066802E00133082B16D007FA03F271
:1055900032EA0104F7D19C0008FA04FC26EA0C0662
:1055A0000EFA04F4282D46EA040632D0482D03F101
:1055B000010308BF0261082BE8D10660FF2924D946
:1055C0000022082301274FF00F08466804E001334A
:1055D000102B02F1040217D007FA03F434EA010C8D
:1055E000F5D108FA02FC26EA0C06282D0EFA02FC78
:1055F0004CEA06060BD0482D03F1010308BF0461F5
:10560000102B02F10402E7D14660BDE8F08144614D
:10561000DDE74261B7E700BF214A10B4536803F0E9
:105620000C03042B06D0082B25D01BB11D4A1346B2
:10563000026001E01B4B036019491B4A4C68C4F32C
:105640000314145DE34043604C68C4F30224145D0A
:1056500023FA04F484604C68C4F3C224145DE3406C
:10566000C360496810BCC1F381310A44127CB3FBAA
:10567000F2F30361704753685168C3F38343C9036E
:1056800003F1020307D55268920304D4054A02FBD2
:1056900003F30360D0E7054A02FB03F30360CBE7A3
:1056A0000010024000127A004004002000093D0072
:1056B000044A936919B923EA0000906170471843BE
:1056C0009061704700100240044AD36919B923EA77
:1056D0000000D06170471843D0617047001002404D
:1056E000044AD36819B923EA0000D0607047184310
:1056F000D060704700100240044A136919B923EAC8
:10570000000010617047184310617047001002409C
:1057100008B5174B984212D0164B98421BD0164B27
:10572000984200D008BD01214FF40040FFF7E4FF8C
:10573000BDE8084000214FF40040FFF7DDBF012124
:105740004FF48050FFF7CCFFBDE8084000214FF434
:105750008050FFF7C5BF01214FF48040FFF7CCFF19
:10576000BDE8084000214FF48040FFF7C5BF00BFEF
:105770000030014000380040003C00404A880B885F
:1057800030B48C881343CA8823430C8913434A8955
:105790008D8923431343CC8902882B43234302F48E
:1057A000415213439BB20380838B0A8A23F4006324
:1057B0001B041B0C838330BC02827047038829B909
:1057C00023F040031B041B0C038070479BB243F083
:1057D00040030380704700BF038829B923F40053B6
:1057E0001B041B0C038070479BB243F400530380DF
:1057F000704700BF274A038890429BB212D002F53F
:10580000006290420ED0B0F1804F0BD0A2F59832DA
:10581000904207D002F58062904203D002F5806288
:10582000904203D14A8823F0700313431A4A9042EE
:1058300027D002F58062904223D070B423F44073E5
:10584000CE888D880C889BB202F58C32334390420F
:105850000380858504850ED0104B98420BD003F54C
:105860004063984207D003F58063984203D003F564
:105870008063984201D10B7A0386012370BC838236
:10588000704703808B8883850B880385012383827F
:10589000704700BF002C0140001000400034014060
:1058A000038829B923F001031B041B0C03807047F4
:1058B0009BB243F001030380704700BF83899BB212
:1058C0001AB923EA01018181704719438181704728
:1058D000FFF7F4BFC94389B20182704770B50D4626
:1058E0000446038ACA889BB223F440531343898930
:1058F00003828289AE8822F4B05323F00C031B0488
:1059000028891B0C6A893343034313439BB2A38149
:10591000A38A86B09BB223F440730B4301A8A382F1
:10592000FFF77AFE04991A48039BA289844208BFB4
:105930000B4612F4004F2A6803EB830314BF520096
:10594000920003EB8303B3FBF2F36422114DA189B0
:10595000A5FB0360400902FB10330A044FEA001064
:105960000AD41B013233A5FB0323C3F343130343C0
:105970009BB2238106B070BDD9003231A5FB013145
:10598000C1F3421242EA00039BB2238106B070BD0C
:10599000003801401F85EB51838929B923F4005356
:1059A0001B041B0C838170479BB243F4005383811B
:1059B000704700BFC1F30801818070470388194216
:1059C00014BF01200020704730B40C4B0C4C1968F8
:1059D0000C4DD1F8A820D1F8AC0004FB02F4A2FBD6
:1059E000052305FB00400132034443F10003C1E9F4
:1059F0002A2323F0004030BC704700BF1000002075
:105A00002DF451582D7F954C546573740A0D000088
:105A10000A0D2D2D20546573742075706C6F6164B0
:105A2000206F662064617461202D2D0A0D00000036
:105A30000A0D2D2D20546573742075706C6F616490
:105A4000206F66206C6F61646572202D2D0A0D0039
:105A50006C647252656164416464723A20436F758C
:105A60006E74206572720A0D000000006C64725240
:105A7000656164416464723A2073656E6453504991
:105A80004672616D65206572720A0D0064756D70F5
:105A90004F6B3A206572726F7220636D640A0D005D
:105AA00064756D704F6B3A206572726F722061641D
:105AB00064722028253034782025303478290A0D66
:105AC0000000000064756D704F6B3A206572726F54
:105AD00072206373756D20282575203A202575295D
:105AE0000A0D000064756D704F6B3A206572726F1D
:105AF00072206C656E20282575203A202575290AAC
:105B00000D0000004661696C20310A0D00000000A4
:105B10004661696C20320A0D000000004661696C24
:105B200020330A0D000000004661696C20340A0D24
:105B3000000000000A0D2D2D2066756C6C44756DFB
:105B400070202D2D0A0D0000546F6F6B20257520DD
:105B50006D730A0D000000004572726F723A205397
:105B60006576657265206572726F722E204461746D
:105B700061206D6973736D617463680A0D000000C4
:105B80001B5B324A000000000010200055AA33CCF5
:105B9000EE11F00F06190000536E643A2000000069
:105BA00025303278200000005265633A2000000062
:105BB00050696E3A202530780A0D000054696D65F1
:105BC0006F7574210A0D00002D2D2043524320656E
:105BD00072726F72202D2D0A0D00000052616D202F
:105BE00041646472206F7574206F6620626F756EF9
:105BF00064732121210A0D000A0D2D2D20456E749C
:105C00006572696E6720626F6F74202D2D0A0D001A
:105C10000A0D2D2D204665746368696E672048451E
:105C2000582064657363726970746F7273202D2DD0
:105C30000A0D00000A0D2D2D20507265702065722E
:105C4000617365202D2D0A0D000000000A0D2D2D19
:105C50002054657374206572617365202D2D0A0DC3
:105C6000000000000A0D2D2D20456E746572696ECE
:105C7000672073656372657420626F6F74202D2DC9
:105C80000A0D00000A0D2D2D2054657374207265D5
:105C90006164202D2D0A0D000A0D2D2D20546573F1
:105CA000742052414D206A756D70202D2D0A0D0013
:105CB0000A0D2D2D205465737420474D20746167A3
:105CC000202D2D0A0D0000000A0D2D2D204578698C
:105CD00074206C6F61646572202D2D0A0D00000028
:105CE0000A0D2D2D205365742070726F74656374D6
:105CF000696F6E202D2D0A0D000000000000C1C04C
:105D000081C1400101C3C003800241C201C6C00677
:105D1000800741C70005C1C581C4400401CCC00C47
:105D2000800D41CD000FC1CF81CE400E000AC1CA07
:105D300081CB400B01C9C009800841C801D8C018F7
:105D4000801941D9001BC1DB81DA401A001EC1DE77
:105D500081DF401F01DDC01D801C41DC0014C1D467
:105D600081D5401501D7C017801641D601D2C01287
:105D7000801341D30011C1D181D0401001F0C03057
:105D8000803141F10033C1F381F240320036C1F677
:105D900081F7403701F5C035803441F4003CC1FC47
:105DA00081FD403D01FFC03F803E41FE01FAC03A07
:105DB000803B41FB0039C1F981F840380028C1E837
:105DC00081E9402901EBC02B802A41EA01EEC02E77
:105DD000802F41EF002DC1ED81EC402C01E4C02467
:105DE000802541E50027C1E781E640260022C1E287
:105DF00081E3402301E1C021802041E001A0C06097
:105E0000806141A10063C1A381A240620066C1A676
:105E100081A7406701A5C065806441A4006CC1AC46
:105E200081AD406D01AFC06F806E41AE01AAC06A06
:105E3000806B41AB0069C1A981A840680078C1B8F6
:105E400081B9407901BBC07B807A41BA01BEC07E76
:105E5000807F41BF007DC1BD81BC407C01B4C07466
:105E6000807541B50077C1B781B640760072C1B286
:105E700081B3407301B1C071807041B00050C190D6
:105E8000819140510193C053805241920196C05676
:105E9000805741970055C19581944054019CC05C46
:105EA000805D419D005FC19F819E405E005AC19A06
:105EB000819B405B0199C059805841980188C04836
:105EC00080494189004BC18B818A404A004EC18E76
:105ED000818F404F018DC04D804C418C0044C18466
:105EE000818540450187C047804641860182C04286
:105EF000804341830041C181818040407374646963
:105F00006F2E633A20696E637265617365204D413F
:105F1000585F535452494E475F53495A450A0D0042
:105F20000100000002000000FF000000000000006F
:105F30001800002000000000000000000000000029
:105F40000100000000000000000000000000000050
:105F50000000000000000000000000000000000041
:105F60000000000000000000000000000000000031
:105F70000000000000000000000000000000000021
:105F80000000000000000000000000000000000011
:1063600000000000010203040102030406070809FB
:046370000204060815
:106374000000000000000000000000000000000019
:106384000000000000000000000000000000000009
:1063940000000000000000000000000000000000F9
:1063A40000000000000000000000000000000000E9
:0400000508000000EF
:00000001FF
